{
  "_format": "hh-sol-artifact-1",
  "contractName": "HeroContract",
  "sourceName": "contracts/hero.sol",
  "abi": [
    {
      "anonymous": false,
      "inputs": [
        {
          "indexed": true,
          "internalType": "address",
          "name": "owner",
          "type": "address"
        },
        {
          "indexed": true,
          "internalType": "address",
          "name": "approved",
          "type": "address"
        },
        {
          "indexed": true,
          "internalType": "uint256",
          "name": "tokenId",
          "type": "uint256"
        }
      ],
      "name": "Approval",
      "type": "event"
    },
    {
      "anonymous": false,
      "inputs": [
        {
          "indexed": true,
          "internalType": "address",
          "name": "owner",
          "type": "address"
        },
        {
          "indexed": true,
          "internalType": "address",
          "name": "operator",
          "type": "address"
        },
        {
          "indexed": false,
          "internalType": "bool",
          "name": "approved",
          "type": "bool"
        }
      ],
      "name": "ApprovalForAll",
      "type": "event"
    },
    {
      "anonymous": false,
      "inputs": [
        {
          "indexed": true,
          "internalType": "address",
          "name": "previousOwner",
          "type": "address"
        },
        {
          "indexed": true,
          "internalType": "address",
          "name": "newOwner",
          "type": "address"
        }
      ],
      "name": "OwnershipTransferred",
      "type": "event"
    },
    {
      "anonymous": false,
      "inputs": [
        {
          "indexed": true,
          "internalType": "address",
          "name": "from",
          "type": "address"
        },
        {
          "indexed": true,
          "internalType": "address",
          "name": "to",
          "type": "address"
        },
        {
          "indexed": true,
          "internalType": "uint256",
          "name": "tokenId",
          "type": "uint256"
        }
      ],
      "name": "Transfer",
      "type": "event"
    },
    {
      "anonymous": false,
      "inputs": [
        {
          "indexed": false,
          "internalType": "uint256",
          "name": "heroId",
          "type": "uint256"
        },
        {
          "indexed": false,
          "internalType": "string",
          "name": "name",
          "type": "string"
        },
        {
          "indexed": false,
          "internalType": "uint256",
          "name": "dna",
          "type": "uint256"
        },
        {
          "indexed": false,
          "internalType": "uint256",
          "name": "patk",
          "type": "uint256"
        },
        {
          "indexed": false,
          "internalType": "uint256",
          "name": "readyTime",
          "type": "uint256"
        }
      ],
      "name": "newHero",
      "type": "event"
    },
    {
      "inputs": [
        {
          "internalType": "address",
          "name": "to",
          "type": "address"
        },
        {
          "internalType": "uint256",
          "name": "tokenId",
          "type": "uint256"
        }
      ],
      "name": "approve",
      "outputs": [],
      "stateMutability": "nonpayable",
      "type": "function"
    },
    {
      "inputs": [
        {
          "internalType": "address",
          "name": "_owner",
          "type": "address"
        }
      ],
      "name": "balanceOf",
      "outputs": [
        {
          "internalType": "uint256",
          "name": "_balance",
          "type": "uint256"
        }
      ],
      "stateMutability": "view",
      "type": "function"
    },
    {
      "inputs": [
        {
          "internalType": "string",
          "name": "_name",
          "type": "string"
        }
      ],
      "name": "createRandomHero",
      "outputs": [],
      "stateMutability": "payable",
      "type": "function"
    },
    {
      "inputs": [
        {
          "internalType": "uint256",
          "name": "tokenId",
          "type": "uint256"
        }
      ],
      "name": "getApproved",
      "outputs": [
        {
          "internalType": "address",
          "name": "",
          "type": "address"
        }
      ],
      "stateMutability": "view",
      "type": "function"
    },
    {
      "inputs": [
        {
          "internalType": "address",
          "name": "_owner",
          "type": "address"
        }
      ],
      "name": "getHeroesByOwner",
      "outputs": [
        {
          "internalType": "uint256[]",
          "name": "",
          "type": "uint256[]"
        }
      ],
      "stateMutability": "view",
      "type": "function"
    },
    {
      "inputs": [
        {
          "internalType": "uint256",
          "name": "",
          "type": "uint256"
        }
      ],
      "name": "heroToOwner",
      "outputs": [
        {
          "internalType": "address",
          "name": "",
          "type": "address"
        }
      ],
      "stateMutability": "view",
      "type": "function"
    },
    {
      "inputs": [
        {
          "internalType": "uint256",
          "name": "",
          "type": "uint256"
        }
      ],
      "name": "heroes",
      "outputs": [
        {
          "internalType": "string",
          "name": "name",
          "type": "string"
        },
        {
          "internalType": "uint256",
          "name": "dna",
          "type": "uint256"
        },
        {
          "internalType": "uint256",
          "name": "patk",
          "type": "uint256"
        },
        {
          "internalType": "uint256",
          "name": "readyTime",
          "type": "uint256"
        }
      ],
      "stateMutability": "view",
      "type": "function"
    },
    {
      "inputs": [],
      "name": "initialize",
      "outputs": [],
      "stateMutability": "nonpayable",
      "type": "function"
    },
    {
      "inputs": [
        {
          "internalType": "address",
          "name": "owner",
          "type": "address"
        },
        {
          "internalType": "address",
          "name": "operator",
          "type": "address"
        }
      ],
      "name": "isApprovedForAll",
      "outputs": [
        {
          "internalType": "bool",
          "name": "",
          "type": "bool"
        }
      ],
      "stateMutability": "view",
      "type": "function"
    },
    {
      "inputs": [
        {
          "internalType": "address",
          "name": "recipient",
          "type": "address"
        },
        {
          "internalType": "string",
          "name": "tokenURI",
          "type": "string"
        }
      ],
      "name": "mintNFT",
      "outputs": [
        {
          "internalType": "uint256",
          "name": "",
          "type": "uint256"
        }
      ],
      "stateMutability": "nonpayable",
      "type": "function"
    },
    {
      "inputs": [],
      "name": "name",
      "outputs": [
        {
          "internalType": "string",
          "name": "",
          "type": "string"
        }
      ],
      "stateMutability": "view",
      "type": "function"
    },
    {
      "inputs": [],
      "name": "owner",
      "outputs": [
        {
          "internalType": "address",
          "name": "",
          "type": "address"
        }
      ],
      "stateMutability": "view",
      "type": "function"
    },
    {
      "inputs": [
        {
          "internalType": "uint256",
          "name": "_tokenId",
          "type": "uint256"
        }
      ],
      "name": "ownerOf",
      "outputs": [
        {
          "internalType": "address",
          "name": "_owner",
          "type": "address"
        }
      ],
      "stateMutability": "view",
      "type": "function"
    },
    {
      "inputs": [],
      "name": "renderHelloWorld",
      "outputs": [
        {
          "internalType": "string",
          "name": "",
          "type": "string"
        }
      ],
      "stateMutability": "pure",
      "type": "function"
    },
    {
      "inputs": [],
      "name": "renounceOwnership",
      "outputs": [],
      "stateMutability": "nonpayable",
      "type": "function"
    },
    {
      "inputs": [
        {
          "internalType": "address",
          "name": "from",
          "type": "address"
        },
        {
          "internalType": "address",
          "name": "to",
          "type": "address"
        },
        {
          "internalType": "uint256",
          "name": "tokenId",
          "type": "uint256"
        }
      ],
      "name": "safeTransferFrom",
      "outputs": [],
      "stateMutability": "nonpayable",
      "type": "function"
    },
    {
      "inputs": [
        {
          "internalType": "address",
          "name": "from",
          "type": "address"
        },
        {
          "internalType": "address",
          "name": "to",
          "type": "address"
        },
        {
          "internalType": "uint256",
          "name": "tokenId",
          "type": "uint256"
        },
        {
          "internalType": "bytes",
          "name": "_data",
          "type": "bytes"
        }
      ],
      "name": "safeTransferFrom",
      "outputs": [],
      "stateMutability": "nonpayable",
      "type": "function"
    },
    {
      "inputs": [
        {
          "internalType": "address",
          "name": "operator",
          "type": "address"
        },
        {
          "internalType": "bool",
          "name": "approved",
          "type": "bool"
        }
      ],
      "name": "setApprovalForAll",
      "outputs": [],
      "stateMutability": "nonpayable",
      "type": "function"
    },
    {
      "inputs": [
        {
          "internalType": "bytes4",
          "name": "interfaceId",
          "type": "bytes4"
        }
      ],
      "name": "supportsInterface",
      "outputs": [
        {
          "internalType": "bool",
          "name": "",
          "type": "bool"
        }
      ],
      "stateMutability": "view",
      "type": "function"
    },
    {
      "inputs": [],
      "name": "symbol",
      "outputs": [
        {
          "internalType": "string",
          "name": "",
          "type": "string"
        }
      ],
      "stateMutability": "view",
      "type": "function"
    },
    {
      "inputs": [
        {
          "internalType": "uint256",
          "name": "tokenId",
          "type": "uint256"
        }
      ],
      "name": "tokenURI",
      "outputs": [
        {
          "internalType": "string",
          "name": "",
          "type": "string"
        }
      ],
      "stateMutability": "view",
      "type": "function"
    },
    {
      "inputs": [
        {
          "internalType": "address",
          "name": "from",
          "type": "address"
        },
        {
          "internalType": "address",
          "name": "to",
          "type": "address"
        },
        {
          "internalType": "uint256",
          "name": "tokenId",
          "type": "uint256"
        }
      ],
      "name": "transferFrom",
      "outputs": [],
      "stateMutability": "nonpayable",
      "type": "function"
    },
    {
      "inputs": [
        {
          "internalType": "address",
          "name": "newOwner",
          "type": "address"
        }
      ],
      "name": "transferOwnership",
      "outputs": [],
      "stateMutability": "nonpayable",
      "type": "function"
    }
  ],
  "bytecode": "0x608060405234801561001057600080fd5b5061415b806100206000396000f3fe6080604052600436106101405760003560e01c80638129fc1c116100b6578063a8d4a03b1161006f578063a8d4a03b1461044d578063b88d4fde1461048d578063c87b56dd146104b6578063e985e9c5146104f3578063eacabe1414610530578063f2fde38b1461056d57610140565b80638129fc1c146103705780638a72ec00146103875780638da5cb5b146103a3578063942ae0a7146103ce57806395d89b41146103f9578063a22cb4651461042457610140565b806323b872dd1161010857806323b872dd1461025057806342842e0e146102795780636352211e146102a257806370a08231146102df578063715018a61461031c5780637b0f0a191461033357610140565b806301ffc9a71461014557806306fdde031461018257806307c99f4e146101ad578063081812fc146101ea578063095ea7b314610227575b600080fd5b34801561015157600080fd5b5061016c60048036038101906101679190612d07565b610596565b6040516101799190613266565b60405180910390f35b34801561018e57600080fd5b50610197610678565b6040516101a49190613281565b60405180910390f35b3480156101b957600080fd5b506101d460048036038101906101cf9190612ae8565b61070a565b6040516101e19190613244565b60405180910390f35b3480156101f657600080fd5b50610211600480360381019061020c9190612daa565b61085f565b60405161021e91906131dd565b60405180910390f35b34801561023357600080fd5b5061024e60048036038101906102499190612cc7565b6108e4565b005b34801561025c57600080fd5b5061027760048036038101906102729190612b55565b6109fc565b005b34801561028557600080fd5b506102a0600480360381019061029b9190612b55565b610a5c565b005b3480156102ae57600080fd5b506102c960048036038101906102c49190612daa565b610a7c565b6040516102d691906131dd565b60405180910390f35b3480156102eb57600080fd5b5061030660048036038101906103019190612ae8565b610aba565b604051610313919061352f565b60405180910390f35b34801561032857600080fd5b50610331610b04565b005b34801561033f57600080fd5b5061035a60048036038101906103559190612daa565b610b8c565b60405161036791906131dd565b60405180910390f35b34801561037c57600080fd5b50610385610bc0565b005b6103a1600480360381019061039c9190612d61565b610d37565b005b3480156103af57600080fd5b506103b8610dd5565b6040516103c591906131dd565b60405180910390f35b3480156103da57600080fd5b506103e3610dff565b6040516103f09190613281565b60405180910390f35b34801561040557600080fd5b5061040e610e3c565b60405161041b9190613281565b60405180910390f35b34801561043057600080fd5b5061044b60048036038101906104469190612c2b565b610ece565b005b34801561045957600080fd5b50610474600480360381019061046f9190612daa565b610ee4565b60405161048494939291906132a3565b60405180910390f35b34801561049957600080fd5b506104b460048036038101906104af9190612ba8565b610fac565b005b3480156104c257600080fd5b506104dd60048036038101906104d89190612daa565b61100e565b6040516104ea9190613281565b60405180910390f35b3480156104ff57600080fd5b5061051a60048036038101906105159190612b15565b611160565b6040516105279190613266565b60405180910390f35b34801561053c57600080fd5b5061055760048036038101906105529190612c6b565b6111f4565b604051610564919061352f565b60405180910390f35b34801561057957600080fd5b50610594600480360381019061058f9190612ae8565b61122c565b005b60007f80ac58cd000000000000000000000000000000000000000000000000000000007bffffffffffffffffffffffffffffffffffffffffffffffffffffffff1916827bffffffffffffffffffffffffffffffffffffffffffffffffffffffff1916148061066157507f5b5e139f000000000000000000000000000000000000000000000000000000007bffffffffffffffffffffffffffffffffffffffffffffffffffffffff1916827bffffffffffffffffffffffffffffffffffffffffffffffffffffffff1916145b80610671575061067082611324565b5b9050919050565b60606097805461068790613989565b80601f01602080910402602001604051908101604052809291908181526020018280546106b390613989565b80156107005780601f106106d557610100808354040283529160200191610700565b820191906000526020600020905b8154815290600101906020018083116106e357829003601f168201915b5050505050905090565b6060600061010160008473ffffffffffffffffffffffffffffffffffffffff1673ffffffffffffffffffffffffffffffffffffffff1681526020019081526020016000205467ffffffffffffffff81111561076857610767613b22565b5b6040519080825280602002602001820160405280156107965781602001602082028036833780820191505090505b5090506000805b60ff80549050811015610854578473ffffffffffffffffffffffffffffffffffffffff16610100600083815260200190815260200160002060009054906101000a900473ffffffffffffffffffffffffffffffffffffffff1673ffffffffffffffffffffffffffffffffffffffff161415610841578083838151811061082657610825613af3565b5b602002602001018181525050818061083d906139ec565b9250505b808061084c906139ec565b91505061079d565b508192505050919050565b600061086a8261138e565b6108a9576040517f08c379a00000000000000000000000000000000000000000000000000000000081526004016108a09061346f565b60405180910390fd5b609b600083815260200190815260200160002060009054906101000a900473ffffffffffffffffffffffffffffffffffffffff169050919050565b60006108ef826113fa565b90508073ffffffffffffffffffffffffffffffffffffffff168373ffffffffffffffffffffffffffffffffffffffff161415610960576040517f08c379a0000000000000000000000000000000000000000000000000000000008152600401610957906134ef565b60405180910390fd5b8073ffffffffffffffffffffffffffffffffffffffff1661097f6114ac565b73ffffffffffffffffffffffffffffffffffffffff1614806109ae57506109ad816109a86114ac565b611160565b5b6109ed576040517f08c379a00000000000000000000000000000000000000000000000000000000081526004016109e4906133af565b60405180910390fd5b6109f783836114b4565b505050565b610a0d610a076114ac565b8261156d565b610a4c576040517f08c379a0000000000000000000000000000000000000000000000000000000008152600401610a439061350f565b60405180910390fd5b610a5783838361164b565b505050565b610a7783838360405180602001604052806000815250610fac565b505050565b6000610100600083815260200190815260200160002060009054906101000a900473ffffffffffffffffffffffffffffffffffffffff169050919050565b600061010160008373ffffffffffffffffffffffffffffffffffffffff1673ffffffffffffffffffffffffffffffffffffffff168152602001908152602001600020549050919050565b610b0c6114ac565b73ffffffffffffffffffffffffffffffffffffffff16610b2a610dd5565b73ffffffffffffffffffffffffffffffffffffffff1614610b80576040517f08c379a0000000000000000000000000000000000000000000000000000000008152600401610b779061348f565b60405180910390fd5b610b8a60006118a7565b565b6101006020528060005260406000206000915054906101000a900473ffffffffffffffffffffffffffffffffffffffff1681565b600060019054906101000a900460ff1680610be6575060008054906101000a900460ff16155b610c25576040517f08c379a0000000000000000000000000000000000000000000000000000000008152600401610c1c9061340f565b60405180910390fd5b60008060019054906101000a900460ff161590508015610c75576001600060016101000a81548160ff02191690831515021790555060016000806101000a81548160ff0219169083151502179055505b600060109050600081600a610c8a9190613781565b9050600062093a809050610d086040518060400160405280600b81526020017f476f6f642046656c6c617a0000000000000000000000000000000000000000008152506040518060400160405280600381526020017f47464e000000000000000000000000000000000000000000000000000000000081525061196d565b610d10611a62565b5050508015610d345760008060016101000a81548160ff0219169083151502179055505b50565b600561010160003373ffffffffffffffffffffffffffffffffffffffff1673ffffffffffffffffffffffffffffffffffffffff1681526020019081526020016000205410610d8457600080fd5b6000610d8f82611b4b565b9050606481610d9e9190613a35565b81610da9919061389f565b9050600060649050610dd083838360fd5442610dc591906136a7565b63ffffffff16611b90565b505050565b6000603360009054906101000a900473ffffffffffffffffffffffffffffffffffffffff16905090565b60606040518060400160405280601b81526020017f54686520636f6e74726163742077617320757067726164656421210000000000815250905090565b606060988054610e4b90613989565b80601f0160208091040260200160405190810160405280929190818152602001828054610e7790613989565b8015610ec45780601f10610e9957610100808354040283529160200191610ec4565b820191906000526020600020905b815481529060010190602001808311610ea757829003601f168201915b5050505050905090565b610ee0610ed96114ac565b8383611d5b565b5050565b60ff8181548110610ef457600080fd5b9060005260206000209060040201600091509050806000018054610f1790613989565b80601f0160208091040260200160405190810160405280929190818152602001828054610f4390613989565b8015610f905780601f10610f6557610100808354040283529160200191610f90565b820191906000526020600020905b815481529060010190602001808311610f7357829003601f168201915b5050505050908060010154908060020154908060030154905084565b610fbd610fb76114ac565b8361156d565b610ffc576040517f08c379a0000000000000000000000000000000000000000000000000000000008152600401610ff39061350f565b60405180910390fd5b61100884848484611ec8565b50505050565b60606110198261138e565b611058576040517f08c379a000000000000000000000000000000000000000000000000000000000815260040161104f9061344f565b60405180910390fd5b600060c96000848152602001908152602001600020805461107890613989565b80601f01602080910402602001604051908101604052809291908181526020018280546110a490613989565b80156110f15780601f106110c6576101008083540402835291602001916110f1565b820191906000526020600020905b8154815290600101906020018083116110d457829003601f168201915b505050505090506000611102611f24565b905060008151141561111857819250505061115b565b60008251111561114d5780826040516020016111359291906131b9565b6040516020818303038152906040529250505061115b565b61115684611f3b565b925050505b919050565b6000609c60008473ffffffffffffffffffffffffffffffffffffffff1673ffffffffffffffffffffffffffffffffffffffff16815260200190815260200160002060008373ffffffffffffffffffffffffffffffffffffffff1673ffffffffffffffffffffffffffffffffffffffff16815260200190815260200160002060009054906101000a900460ff16905092915050565b600061120060fe611fe2565b600061120c60fe611ff8565b90506112188482612006565b61122281846121d4565b8091505092915050565b6112346114ac565b73ffffffffffffffffffffffffffffffffffffffff16611252610dd5565b73ffffffffffffffffffffffffffffffffffffffff16146112a8576040517f08c379a000000000000000000000000000000000000000000000000000000000815260040161129f9061348f565b60405180910390fd5b600073ffffffffffffffffffffffffffffffffffffffff168173ffffffffffffffffffffffffffffffffffffffff161415611318576040517f08c379a000000000000000000000000000000000000000000000000000000000815260040161130f9061330f565b60405180910390fd5b611321816118a7565b50565b60007f01ffc9a7000000000000000000000000000000000000000000000000000000007bffffffffffffffffffffffffffffffffffffffffffffffffffffffff1916827bffffffffffffffffffffffffffffffffffffffffffffffffffffffff1916149050919050565b60008073ffffffffffffffffffffffffffffffffffffffff166099600084815260200190815260200160002060009054906101000a900473ffffffffffffffffffffffffffffffffffffffff1673ffffffffffffffffffffffffffffffffffffffff1614159050919050565b6000806099600084815260200190815260200160002060009054906101000a900473ffffffffffffffffffffffffffffffffffffffff169050600073ffffffffffffffffffffffffffffffffffffffff168173ffffffffffffffffffffffffffffffffffffffff1614156114a3576040517f08c379a000000000000000000000000000000000000000000000000000000000815260040161149a906133cf565b60405180910390fd5b80915050919050565b600033905090565b81609b600083815260200190815260200160002060006101000a81548173ffffffffffffffffffffffffffffffffffffffff021916908373ffffffffffffffffffffffffffffffffffffffff160217905550808273ffffffffffffffffffffffffffffffffffffffff16611527836113fa565b73ffffffffffffffffffffffffffffffffffffffff167f8c5be1e5ebec7d5bd14f71427d1e84f3dd0314c0f7b2291e5b200ac8c7c3b92560405160405180910390a45050565b60006115788261138e565b6115b7576040517f08c379a00000000000000000000000000000000000000000000000000000000081526004016115ae9061338f565b60405180910390fd5b60006115c2836113fa565b90508073ffffffffffffffffffffffffffffffffffffffff168473ffffffffffffffffffffffffffffffffffffffff16148061163157508373ffffffffffffffffffffffffffffffffffffffff166116198461085f565b73ffffffffffffffffffffffffffffffffffffffff16145b8061164257506116418185611160565b5b91505092915050565b8273ffffffffffffffffffffffffffffffffffffffff1661166b826113fa565b73ffffffffffffffffffffffffffffffffffffffff16146116c1576040517f08c379a00000000000000000000000000000000000000000000000000000000081526004016116b8906134af565b60405180910390fd5b600073ffffffffffffffffffffffffffffffffffffffff168273ffffffffffffffffffffffffffffffffffffffff161415611731576040517f08c379a00000000000000000000000000000000000000000000000000000000081526004016117289061334f565b60405180910390fd5b61173c838383612248565b6117476000826114b4565b6001609a60008573ffffffffffffffffffffffffffffffffffffffff1673ffffffffffffffffffffffffffffffffffffffff1681526020019081526020016000206000828254611797919061389f565b925050819055506001609a60008473ffffffffffffffffffffffffffffffffffffffff1673ffffffffffffffffffffffffffffffffffffffff16815260200190815260200160002060008282546117ee91906136a7565b92505081905550816099600083815260200190815260200160002060006101000a81548173ffffffffffffffffffffffffffffffffffffffff021916908373ffffffffffffffffffffffffffffffffffffffff160217905550808273ffffffffffffffffffffffffffffffffffffffff168473ffffffffffffffffffffffffffffffffffffffff167fddf252ad1be2c89b69c2b068fc378daa952ba7f163c4a11628f55a4df523b3ef60405160405180910390a4505050565b6000603360009054906101000a900473ffffffffffffffffffffffffffffffffffffffff16905081603360006101000a81548173ffffffffffffffffffffffffffffffffffffffff021916908373ffffffffffffffffffffffffffffffffffffffff1602179055508173ffffffffffffffffffffffffffffffffffffffff168173ffffffffffffffffffffffffffffffffffffffff167f8be0079c531659141344cd1fd0a4f28419497f9722a3daafe3b4186f6b6457e060405160405180910390a35050565b600060019054906101000a900460ff1680611993575060008054906101000a900460ff16155b6119d2576040517f08c379a00000000000000000000000000000000000000000000000000000000081526004016119c99061340f565b60405180910390fd5b60008060019054906101000a900460ff161590508015611a22576001600060016101000a81548160ff02191690831515021790555060016000806101000a81548160ff0219169083151502179055505b611a2a61224d565b611a32612326565b611a3c83836123ff565b8015611a5d5760008060016101000a81548160ff0219169083151502179055505b505050565b600060019054906101000a900460ff1680611a88575060008054906101000a900460ff16155b611ac7576040517f08c379a0000000000000000000000000000000000000000000000000000000008152600401611abe9061340f565b60405180910390fd5b60008060019054906101000a900460ff161590508015611b17576001600060016101000a81548160ff02191690831515021790555060016000806101000a81548160ff0219169083151502179055505b611b1f61224d565b611b27612508565b8015611b485760008060016101000a81548160ff0219169083151502179055505b50565b60008082604051602001611b5f91906131a2565b6040516020818303038152906040528051906020012060001c905060fc5481611b889190613a35565b915050919050565b60ff60405180608001604052808681526020018581526020016001815260200160fd5442611bbe91906136a7565b63ffffffff1681525090806001815401808255809150506001900390600052602060002090600402016000909190919091506000820151816000019080519060200190611c0c9291906128fc565b5060208201518160010155604082015181600201556060820151816003015550506000600160ff80549050611c41919061389f565b905033610100600083815260200190815260200160002060006101000a81548173ffffffffffffffffffffffffffffffffffffffff021916908373ffffffffffffffffffffffffffffffffffffffff16021790555061010160003373ffffffffffffffffffffffffffffffffffffffff1673ffffffffffffffffffffffffffffffffffffffff1681526020019081526020016000206000815480929190611ce7906139ec565b91905055507f462c151c187c44753e3753efa2df0b8d9ec2741c4a0bdffcecfa823054db56188186868686604051611d2395949392919061354a565b60405180910390a160006040518060800160405280605081526020016140d6605091399050611d5233826111f4565b50505050505050565b8173ffffffffffffffffffffffffffffffffffffffff168373ffffffffffffffffffffffffffffffffffffffff161415611dca576040517f08c379a0000000000000000000000000000000000000000000000000000000008152600401611dc19061336f565b60405180910390fd5b80609c60008573ffffffffffffffffffffffffffffffffffffffff1673ffffffffffffffffffffffffffffffffffffffff16815260200190815260200160002060008473ffffffffffffffffffffffffffffffffffffffff1673ffffffffffffffffffffffffffffffffffffffff16815260200190815260200160002060006101000a81548160ff0219169083151502179055508173ffffffffffffffffffffffffffffffffffffffff168373ffffffffffffffffffffffffffffffffffffffff167f17307eab39ab6107e8899845ad3d59bd9653f200f220920489ca2b5937696c3183604051611ebb9190613266565b60405180910390a3505050565b611ed384848461164b565b611edf848484846125f1565b611f1e576040517f08c379a0000000000000000000000000000000000000000000000000000000008152600401611f15906132ef565b60405180910390fd5b50505050565b606060405180602001604052806000815250905090565b6060611f468261138e565b611f85576040517f08c379a0000000000000000000000000000000000000000000000000000000008152600401611f7c906134cf565b60405180910390fd5b6000611f8f611f24565b90506000815111611faf5760405180602001604052806000815250611fda565b80611fb984612788565b604051602001611fca9291906131b9565b6040516020818303038152906040525b915050919050565b6001816000016000828254019250508190555050565b600081600001549050919050565b600073ffffffffffffffffffffffffffffffffffffffff168273ffffffffffffffffffffffffffffffffffffffff161415612076576040517f08c379a000000000000000000000000000000000000000000000000000000000815260040161206d9061342f565b60405180910390fd5b61207f8161138e565b156120bf576040517f08c379a00000000000000000000000000000000000000000000000000000000081526004016120b69061332f565b60405180910390fd5b6120cb60008383612248565b6001609a60008473ffffffffffffffffffffffffffffffffffffffff1673ffffffffffffffffffffffffffffffffffffffff168152602001908152602001600020600082825461211b91906136a7565b92505081905550816099600083815260200190815260200160002060006101000a81548173ffffffffffffffffffffffffffffffffffffffff021916908373ffffffffffffffffffffffffffffffffffffffff160217905550808273ffffffffffffffffffffffffffffffffffffffff16600073ffffffffffffffffffffffffffffffffffffffff167fddf252ad1be2c89b69c2b068fc378daa952ba7f163c4a11628f55a4df523b3ef60405160405180910390a45050565b6121dd8261138e565b61221c576040517f08c379a0000000000000000000000000000000000000000000000000000000008152600401612213906133ef565b60405180910390fd5b8060c9600084815260200190815260200160002090805190602001906122439291906128fc565b505050565b505050565b600060019054906101000a900460ff1680612273575060008054906101000a900460ff16155b6122b2576040517f08c379a00000000000000000000000000000000000000000000000000000000081526004016122a99061340f565b60405180910390fd5b60008060019054906101000a900460ff161590508015612302576001600060016101000a81548160ff02191690831515021790555060016000806101000a81548160ff0219169083151502179055505b80156123235760008060016101000a81548160ff0219169083151502179055505b50565b600060019054906101000a900460ff168061234c575060008054906101000a900460ff16155b61238b576040517f08c379a00000000000000000000000000000000000000000000000000000000081526004016123829061340f565b60405180910390fd5b60008060019054906101000a900460ff1615905080156123db576001600060016101000a81548160ff02191690831515021790555060016000806101000a81548160ff0219169083151502179055505b80156123fc5760008060016101000a81548160ff0219169083151502179055505b50565b600060019054906101000a900460ff1680612425575060008054906101000a900460ff16155b612464576040517f08c379a000000000000000000000000000000000000000000000000000000000815260040161245b9061340f565b60405180910390fd5b60008060019054906101000a900460ff1615905080156124b4576001600060016101000a81548160ff02191690831515021790555060016000806101000a81548160ff0219169083151502179055505b82609790805190602001906124ca9291906128fc565b5081609890805190602001906124e19291906128fc565b5080156125035760008060016101000a81548160ff0219169083151502179055505b505050565b600060019054906101000a900460ff168061252e575060008054906101000a900460ff16155b61256d576040517f08c379a00000000000000000000000000000000000000000000000000000000081526004016125649061340f565b60405180910390fd5b60008060019054906101000a900460ff1615905080156125bd576001600060016101000a81548160ff02191690831515021790555060016000806101000a81548160ff0219169083151502179055505b6125cd6125c86114ac565b6118a7565b80156125ee5760008060016101000a81548160ff0219169083151502179055505b50565b60006126128473ffffffffffffffffffffffffffffffffffffffff166128e9565b1561277b578373ffffffffffffffffffffffffffffffffffffffff1663150b7a0261263b6114ac565b8786866040518563ffffffff1660e01b815260040161265d94939291906131f8565b602060405180830381600087803b15801561267757600080fd5b505af19250505080156126a857506040513d601f19601f820116820180604052508101906126a59190612d34565b60015b61272b573d80600081146126d8576040519150601f19603f3d011682016040523d82523d6000602084013e6126dd565b606091505b50600081511415612723576040517f08c379a000000000000000000000000000000000000000000000000000000000815260040161271a906132ef565b60405180910390fd5b805181602001fd5b63150b7a0260e01b7bffffffffffffffffffffffffffffffffffffffffffffffffffffffff1916817bffffffffffffffffffffffffffffffffffffffffffffffffffffffff191614915050612780565b600190505b949350505050565b606060008214156127d0576040518060400160405280600181526020017f300000000000000000000000000000000000000000000000000000000000000081525090506128e4565b600082905060005b600082146128025780806127eb906139ec565b915050600a826127fb91906136fd565b91506127d8565b60008167ffffffffffffffff81111561281e5761281d613b22565b5b6040519080825280601f01601f1916602001820160405280156128505781602001600182028036833780820191505090505b5090505b600085146128dd57600182612869919061389f565b9150600a856128789190613a35565b603061288491906136a7565b60f81b81838151811061289a57612899613af3565b5b60200101907effffffffffffffffffffffffffffffffffffffffffffffffffffffffffffff1916908160001a905350600a856128d691906136fd565b9450612854565b8093505050505b919050565b600080823b905060008111915050919050565b82805461290890613989565b90600052602060002090601f01602090048101928261292a5760008555612971565b82601f1061294357805160ff1916838001178555612971565b82800160010185558215612971579182015b82811115612970578251825591602001919060010190612955565b5b50905061297e9190612982565b5090565b5b8082111561299b576000816000905550600101612983565b5090565b60006129b26129ad846135c9565b6135a4565b9050828152602081018484840111156129ce576129cd613b56565b5b6129d9848285613947565b509392505050565b60006129f46129ef846135fa565b6135a4565b905082815260208101848484011115612a1057612a0f613b56565b5b612a1b848285613947565b509392505050565b600081359050612a3281614079565b92915050565b600081359050612a4781614090565b92915050565b600081359050612a5c816140a7565b92915050565b600081519050612a71816140a7565b92915050565b600082601f830112612a8c57612a8b613b51565b5b8135612a9c84826020860161299f565b91505092915050565b600082601f830112612aba57612ab9613b51565b5b8135612aca8482602086016129e1565b91505092915050565b600081359050612ae2816140be565b92915050565b600060208284031215612afe57612afd613b60565b5b6000612b0c84828501612a23565b91505092915050565b60008060408385031215612b2c57612b2b613b60565b5b6000612b3a85828601612a23565b9250506020612b4b85828601612a23565b9150509250929050565b600080600060608486031215612b6e57612b6d613b60565b5b6000612b7c86828701612a23565b9350506020612b8d86828701612a23565b9250506040612b9e86828701612ad3565b9150509250925092565b60008060008060808587031215612bc257612bc1613b60565b5b6000612bd087828801612a23565b9450506020612be187828801612a23565b9350506040612bf287828801612ad3565b925050606085013567ffffffffffffffff811115612c1357612c12613b5b565b5b612c1f87828801612a77565b91505092959194509250565b60008060408385031215612c4257612c41613b60565b5b6000612c5085828601612a23565b9250506020612c6185828601612a38565b9150509250929050565b60008060408385031215612c8257612c81613b60565b5b6000612c9085828601612a23565b925050602083013567ffffffffffffffff811115612cb157612cb0613b5b565b5b612cbd85828601612aa5565b9150509250929050565b60008060408385031215612cde57612cdd613b60565b5b6000612cec85828601612a23565b9250506020612cfd85828601612ad3565b9150509250929050565b600060208284031215612d1d57612d1c613b60565b5b6000612d2b84828501612a4d565b91505092915050565b600060208284031215612d4a57612d49613b60565b5b6000612d5884828501612a62565b91505092915050565b600060208284031215612d7757612d76613b60565b5b600082013567ffffffffffffffff811115612d9557612d94613b5b565b5b612da184828501612aa5565b91505092915050565b600060208284031215612dc057612dbf613b60565b5b6000612dce84828501612ad3565b91505092915050565b6000612de38383613184565b60208301905092915050565b612df8816138d3565b82525050565b6000612e098261363b565b612e138185613669565b9350612e1e8361362b565b8060005b83811015612e4f578151612e368882612dd7565b9750612e418361365c565b925050600181019050612e22565b5085935050505092915050565b612e65816138e5565b82525050565b6000612e7682613646565b612e80818561367a565b9350612e90818560208601613956565b612e9981613b65565b840191505092915050565b6000612eaf82613651565b612eb9818561368b565b9350612ec9818560208601613956565b612ed281613b65565b840191505092915050565b6000612ee882613651565b612ef2818561369c565b9350612f02818560208601613956565b80840191505092915050565b6000612f1b60328361368b565b9150612f2682613b83565b604082019050919050565b6000612f3e60268361368b565b9150612f4982613bd2565b604082019050919050565b6000612f61601c8361368b565b9150612f6c82613c21565b602082019050919050565b6000612f8460248361368b565b9150612f8f82613c4a565b604082019050919050565b6000612fa760198361368b565b9150612fb282613c99565b602082019050919050565b6000612fca602c8361368b565b9150612fd582613cc2565b604082019050919050565b6000612fed60388361368b565b9150612ff882613d11565b604082019050919050565b600061301060298361368b565b915061301b82613d60565b604082019050919050565b6000613033602e8361368b565b915061303e82613daf565b604082019050919050565b6000613056602e8361368b565b915061306182613dfe565b604082019050919050565b600061307960208361368b565b915061308482613e4d565b602082019050919050565b600061309c60318361368b565b91506130a782613e76565b604082019050919050565b60006130bf602c8361368b565b91506130ca82613ec5565b604082019050919050565b60006130e260208361368b565b91506130ed82613f14565b602082019050919050565b600061310560298361368b565b915061311082613f3d565b604082019050919050565b6000613128602f8361368b565b915061313382613f8c565b604082019050919050565b600061314b60218361368b565b915061315682613fdb565b604082019050919050565b600061316e60318361368b565b91506131798261402a565b604082019050919050565b61318d8161393d565b82525050565b61319c8161393d565b82525050565b60006131ae8284612edd565b915081905092915050565b60006131c58285612edd565b91506131d18284612edd565b91508190509392505050565b60006020820190506131f26000830184612def565b92915050565b600060808201905061320d6000830187612def565b61321a6020830186612def565b6132276040830185613193565b81810360608301526132398184612e6b565b905095945050505050565b6000602082019050818103600083015261325e8184612dfe565b905092915050565b600060208201905061327b6000830184612e5c565b92915050565b6000602082019050818103600083015261329b8184612ea4565b905092915050565b600060808201905081810360008301526132bd8187612ea4565b90506132cc6020830186613193565b6132d96040830185613193565b6132e66060830184613193565b95945050505050565b6000602082019050818103600083015261330881612f0e565b9050919050565b6000602082019050818103600083015261332881612f31565b9050919050565b6000602082019050818103600083015261334881612f54565b9050919050565b6000602082019050818103600083015261336881612f77565b9050919050565b6000602082019050818103600083015261338881612f9a565b9050919050565b600060208201905081810360008301526133a881612fbd565b9050919050565b600060208201905081810360008301526133c881612fe0565b9050919050565b600060208201905081810360008301526133e881613003565b9050919050565b6000602082019050818103600083015261340881613026565b9050919050565b6000602082019050818103600083015261342881613049565b9050919050565b600060208201905081810360008301526134488161306c565b9050919050565b600060208201905081810360008301526134688161308f565b9050919050565b60006020820190508181036000830152613488816130b2565b9050919050565b600060208201905081810360008301526134a8816130d5565b9050919050565b600060208201905081810360008301526134c8816130f8565b9050919050565b600060208201905081810360008301526134e88161311b565b9050919050565b600060208201905081810360008301526135088161313e565b9050919050565b6000602082019050818103600083015261352881613161565b9050919050565b60006020820190506135446000830184613193565b92915050565b600060a08201905061355f6000830188613193565b81810360208301526135718187612ea4565b90506135806040830186613193565b61358d6060830185613193565b61359a6080830184613193565b9695505050505050565b60006135ae6135bf565b90506135ba82826139bb565b919050565b6000604051905090565b600067ffffffffffffffff8211156135e4576135e3613b22565b5b6135ed82613b65565b9050602081019050919050565b600067ffffffffffffffff82111561361557613614613b22565b5b61361e82613b65565b9050602081019050919050565b6000819050602082019050919050565b600081519050919050565b600081519050919050565b600081519050919050565b6000602082019050919050565b600082825260208201905092915050565b600082825260208201905092915050565b600082825260208201905092915050565b600081905092915050565b60006136b28261393d565b91506136bd8361393d565b9250827fffffffffffffffffffffffffffffffffffffffffffffffffffffffffffffffff038211156136f2576136f1613a66565b5b828201905092915050565b60006137088261393d565b91506137138361393d565b92508261372357613722613a95565b5b828204905092915050565b6000808291508390505b60018511156137785780860481111561375457613753613a66565b5b60018516156137635780820291505b808102905061377185613b76565b9450613738565b94509492505050565b600061378c8261393d565b91506137978361393d565b92506137c47fffffffffffffffffffffffffffffffffffffffffffffffffffffffffffffffff84846137cc565b905092915050565b6000826137dc5760019050613898565b816137ea5760009050613898565b8160018114613800576002811461380a57613839565b6001915050613898565b60ff84111561381c5761381b613a66565b5b8360020a91508482111561383357613832613a66565b5b50613898565b5060208310610133831016604e8410600b841016171561386e5782820a90508381111561386957613868613a66565b5b613898565b61387b848484600161372e565b9250905081840481111561389257613891613a66565b5b81810290505b9392505050565b60006138aa8261393d565b91506138b58361393d565b9250828210156138c8576138c7613a66565b5b828203905092915050565b60006138de8261391d565b9050919050565b60008115159050919050565b60007fffffffff0000000000000000000000000000000000000000000000000000000082169050919050565b600073ffffffffffffffffffffffffffffffffffffffff82169050919050565b6000819050919050565b82818337600083830152505050565b60005b83811015613974578082015181840152602081019050613959565b83811115613983576000848401525b50505050565b600060028204905060018216806139a157607f821691505b602082108114156139b5576139b4613ac4565b5b50919050565b6139c482613b65565b810181811067ffffffffffffffff821117156139e3576139e2613b22565b5b80604052505050565b60006139f78261393d565b91507fffffffffffffffffffffffffffffffffffffffffffffffffffffffffffffffff821415613a2a57613a29613a66565b5b600182019050919050565b6000613a408261393d565b9150613a4b8361393d565b925082613a5b57613a5a613a95565b5b828206905092915050565b7f4e487b7100000000000000000000000000000000000000000000000000000000600052601160045260246000fd5b7f4e487b7100000000000000000000000000000000000000000000000000000000600052601260045260246000fd5b7f4e487b7100000000000000000000000000000000000000000000000000000000600052602260045260246000fd5b7f4e487b7100000000000000000000000000000000000000000000000000000000600052603260045260246000fd5b7f4e487b7100000000000000000000000000000000000000000000000000000000600052604160045260246000fd5b600080fd5b600080fd5b600080fd5b600080fd5b6000601f19601f8301169050919050565b60008160011c9050919050565b7f4552433732313a207472616e7366657220746f206e6f6e20455243373231526560008201527f63656976657220696d706c656d656e7465720000000000000000000000000000602082015250565b7f4f776e61626c653a206e6577206f776e657220697320746865207a65726f206160008201527f6464726573730000000000000000000000000000000000000000000000000000602082015250565b7f4552433732313a20746f6b656e20616c7265616479206d696e74656400000000600082015250565b7f4552433732313a207472616e7366657220746f20746865207a65726f2061646460008201527f7265737300000000000000000000000000000000000000000000000000000000602082015250565b7f4552433732313a20617070726f766520746f2063616c6c657200000000000000600082015250565b7f4552433732313a206f70657261746f7220717565727920666f72206e6f6e657860008201527f697374656e7420746f6b656e0000000000000000000000000000000000000000602082015250565b7f4552433732313a20617070726f76652063616c6c6572206973206e6f74206f7760008201527f6e6572206e6f7220617070726f76656420666f7220616c6c0000000000000000602082015250565b7f4552433732313a206f776e657220717565727920666f72206e6f6e657869737460008201527f656e7420746f6b656e0000000000000000000000000000000000000000000000602082015250565b7f45524337323155524953746f726167653a2055524920736574206f66206e6f6e60008201527f6578697374656e7420746f6b656e000000000000000000000000000000000000602082015250565b7f496e697469616c697a61626c653a20636f6e747261637420697320616c72656160008201527f647920696e697469616c697a6564000000000000000000000000000000000000602082015250565b7f4552433732313a206d696e7420746f20746865207a65726f2061646472657373600082015250565b7f45524337323155524953746f726167653a2055524920717565727920666f722060008201527f6e6f6e6578697374656e7420746f6b656e000000000000000000000000000000602082015250565b7f4552433732313a20617070726f76656420717565727920666f72206e6f6e657860008201527f697374656e7420746f6b656e0000000000000000000000000000000000000000602082015250565b7f4f776e61626c653a2063616c6c6572206973206e6f7420746865206f776e6572600082015250565b7f4552433732313a207472616e73666572206f6620746f6b656e2074686174206960008201527f73206e6f74206f776e0000000000000000000000000000000000000000000000602082015250565b7f4552433732314d657461646174613a2055524920717565727920666f72206e6f60008201527f6e6578697374656e7420746f6b656e0000000000000000000000000000000000602082015250565b7f4552433732313a20617070726f76616c20746f2063757272656e74206f776e6560008201527f7200000000000000000000000000000000000000000000000000000000000000602082015250565b7f4552433732313a207472616e736665722063616c6c6572206973206e6f74206f60008201527f776e6572206e6f7220617070726f766564000000000000000000000000000000602082015250565b614082816138d3565b811461408d57600080fd5b50565b614099816138e5565b81146140a457600080fd5b50565b6140b0816138f1565b81146140bb57600080fd5b50565b6140c78161393d565b81146140d257600080fd5b5056fe68747470733a2f2f676174657761792e70696e6174612e636c6f75642f697066732f516d513544713442754a7662763848684177363950536d4d687439764d3778597337457a7a53576b43456b633254a26469706673582212201fbfce7ac9b612724cfb1a6be7d83d3f5ebf99cc1e8d58115afbf7b98780ee8864736f6c63430008070033",
  "linkReferences": {},
  "deployedLinkReferences": {}
}