{
  "_format": "hh-sol-artifact-1",
  "contractName": "HeroC",
  "sourceName": "contracts/hero.sol",
  "abi": [
    {
      "inputs": [],
      "stateMutability": "nonpayable",
      "type": "constructor"
    },
    {
      "anonymous": false,
      "inputs": [
        {
          "indexed": true,
          "internalType": "address",
          "name": "owner",
          "type": "address"
        },
        {
          "indexed": true,
          "internalType": "address",
          "name": "approved",
          "type": "address"
        },
        {
          "indexed": true,
          "internalType": "uint256",
          "name": "tokenId",
          "type": "uint256"
        }
      ],
      "name": "Approval",
      "type": "event"
    },
    {
      "anonymous": false,
      "inputs": [
        {
          "indexed": true,
          "internalType": "address",
          "name": "owner",
          "type": "address"
        },
        {
          "indexed": true,
          "internalType": "address",
          "name": "operator",
          "type": "address"
        },
        {
          "indexed": false,
          "internalType": "bool",
          "name": "approved",
          "type": "bool"
        }
      ],
      "name": "ApprovalForAll",
      "type": "event"
    },
    {
      "anonymous": false,
      "inputs": [
        {
          "indexed": false,
          "internalType": "uint256",
          "name": "heroId",
          "type": "uint256"
        },
        {
          "indexed": false,
          "internalType": "string",
          "name": "name",
          "type": "string"
        },
        {
          "indexed": false,
          "internalType": "uint256",
          "name": "dna",
          "type": "uint256"
        },
        {
          "indexed": false,
          "internalType": "uint256",
          "name": "readyTime",
          "type": "uint256"
        },
        {
          "indexed": false,
          "internalType": "uint256",
          "name": "patk",
          "type": "uint256"
        },
        {
          "indexed": false,
          "internalType": "uint256",
          "name": "hp",
          "type": "uint256"
        },
        {
          "indexed": false,
          "internalType": "uint256",
          "name": "mp",
          "type": "uint256"
        },
        {
          "indexed": false,
          "internalType": "uint256",
          "name": "atkspped",
          "type": "uint256"
        }
      ],
      "name": "NewHero",
      "type": "event"
    },
    {
      "anonymous": false,
      "inputs": [
        {
          "indexed": true,
          "internalType": "address",
          "name": "previousOwner",
          "type": "address"
        },
        {
          "indexed": true,
          "internalType": "address",
          "name": "newOwner",
          "type": "address"
        }
      ],
      "name": "OwnershipTransferred",
      "type": "event"
    },
    {
      "anonymous": false,
      "inputs": [
        {
          "indexed": true,
          "internalType": "address",
          "name": "from",
          "type": "address"
        },
        {
          "indexed": true,
          "internalType": "address",
          "name": "to",
          "type": "address"
        },
        {
          "indexed": true,
          "internalType": "uint256",
          "name": "tokenId",
          "type": "uint256"
        }
      ],
      "name": "Transfer",
      "type": "event"
    },
    {
      "inputs": [],
      "name": "MAX_PER_MINT",
      "outputs": [
        {
          "internalType": "uint256",
          "name": "",
          "type": "uint256"
        }
      ],
      "stateMutability": "view",
      "type": "function"
    },
    {
      "inputs": [],
      "name": "MAX_SUPPLY",
      "outputs": [
        {
          "internalType": "uint256",
          "name": "",
          "type": "uint256"
        }
      ],
      "stateMutability": "view",
      "type": "function"
    },
    {
      "inputs": [],
      "name": "PRICE",
      "outputs": [
        {
          "internalType": "uint256",
          "name": "",
          "type": "uint256"
        }
      ],
      "stateMutability": "view",
      "type": "function"
    },
    {
      "inputs": [
        {
          "internalType": "address",
          "name": "_approved",
          "type": "address"
        },
        {
          "internalType": "uint256",
          "name": "_tokenId",
          "type": "uint256"
        }
      ],
      "name": "approve",
      "outputs": [],
      "stateMutability": "nonpayable",
      "type": "function"
    },
    {
      "inputs": [
        {
          "internalType": "address",
          "name": "owner",
          "type": "address"
        }
      ],
      "name": "balanceOf",
      "outputs": [
        {
          "internalType": "uint256",
          "name": "",
          "type": "uint256"
        }
      ],
      "stateMutability": "view",
      "type": "function"
    },
    {
      "inputs": [
        {
          "internalType": "uint256",
          "name": "_heroId",
          "type": "uint256"
        },
        {
          "internalType": "uint256",
          "name": "_secondHeroId",
          "type": "uint256"
        },
        {
          "internalType": "string",
          "name": "_name",
          "type": "string"
        }
      ],
      "name": "createNewHeroNftfromtwonfts",
      "outputs": [],
      "stateMutability": "nonpayable",
      "type": "function"
    },
    {
      "inputs": [
        {
          "internalType": "string",
          "name": "_name",
          "type": "string"
        }
      ],
      "name": "createRandomHero",
      "outputs": [],
      "stateMutability": "payable",
      "type": "function"
    },
    {
      "inputs": [
        {
          "internalType": "uint256",
          "name": "tokenId",
          "type": "uint256"
        }
      ],
      "name": "getApproved",
      "outputs": [
        {
          "internalType": "address",
          "name": "",
          "type": "address"
        }
      ],
      "stateMutability": "view",
      "type": "function"
    },
    {
      "inputs": [
        {
          "internalType": "address",
          "name": "_owner",
          "type": "address"
        }
      ],
      "name": "getHeroesByOwner",
      "outputs": [
        {
          "internalType": "uint256[]",
          "name": "",
          "type": "uint256[]"
        }
      ],
      "stateMutability": "view",
      "type": "function"
    },
    {
      "inputs": [
        {
          "internalType": "uint256",
          "name": "",
          "type": "uint256"
        }
      ],
      "name": "heroToOwner",
      "outputs": [
        {
          "internalType": "address",
          "name": "",
          "type": "address"
        }
      ],
      "stateMutability": "view",
      "type": "function"
    },
    {
      "inputs": [
        {
          "internalType": "uint256",
          "name": "",
          "type": "uint256"
        }
      ],
      "name": "heroes",
      "outputs": [
        {
          "internalType": "string",
          "name": "name",
          "type": "string"
        },
        {
          "internalType": "uint256",
          "name": "dna",
          "type": "uint256"
        },
        {
          "internalType": "uint256",
          "name": "readyTime",
          "type": "uint256"
        },
        {
          "internalType": "uint256",
          "name": "patk",
          "type": "uint256"
        },
        {
          "internalType": "uint256",
          "name": "hp",
          "type": "uint256"
        },
        {
          "internalType": "uint256",
          "name": "mp",
          "type": "uint256"
        },
        {
          "internalType": "uint256",
          "name": "atkspeed",
          "type": "uint256"
        }
      ],
      "stateMutability": "view",
      "type": "function"
    },
    {
      "inputs": [
        {
          "internalType": "address",
          "name": "owner",
          "type": "address"
        },
        {
          "internalType": "address",
          "name": "operator",
          "type": "address"
        }
      ],
      "name": "isApprovedForAll",
      "outputs": [
        {
          "internalType": "bool",
          "name": "",
          "type": "bool"
        }
      ],
      "stateMutability": "view",
      "type": "function"
    },
    {
      "inputs": [
        {
          "internalType": "address",
          "name": "recipient",
          "type": "address"
        },
        {
          "internalType": "uint256",
          "name": "dna",
          "type": "uint256"
        }
      ],
      "name": "mintNFT",
      "outputs": [
        {
          "internalType": "uint256",
          "name": "",
          "type": "uint256"
        }
      ],
      "stateMutability": "nonpayable",
      "type": "function"
    },
    {
      "inputs": [],
      "name": "name",
      "outputs": [
        {
          "internalType": "string",
          "name": "",
          "type": "string"
        }
      ],
      "stateMutability": "view",
      "type": "function"
    },
    {
      "inputs": [],
      "name": "owner",
      "outputs": [
        {
          "internalType": "address",
          "name": "",
          "type": "address"
        }
      ],
      "stateMutability": "view",
      "type": "function"
    },
    {
      "inputs": [
        {
          "internalType": "uint256",
          "name": "tokenId",
          "type": "uint256"
        }
      ],
      "name": "ownerOf",
      "outputs": [
        {
          "internalType": "address",
          "name": "",
          "type": "address"
        }
      ],
      "stateMutability": "view",
      "type": "function"
    },
    {
      "inputs": [],
      "name": "renounceOwnership",
      "outputs": [],
      "stateMutability": "nonpayable",
      "type": "function"
    },
    {
      "inputs": [
        {
          "internalType": "address",
          "name": "from",
          "type": "address"
        },
        {
          "internalType": "address",
          "name": "to",
          "type": "address"
        },
        {
          "internalType": "uint256",
          "name": "tokenId",
          "type": "uint256"
        }
      ],
      "name": "safeTransferFrom",
      "outputs": [],
      "stateMutability": "nonpayable",
      "type": "function"
    },
    {
      "inputs": [
        {
          "internalType": "address",
          "name": "from",
          "type": "address"
        },
        {
          "internalType": "address",
          "name": "to",
          "type": "address"
        },
        {
          "internalType": "uint256",
          "name": "tokenId",
          "type": "uint256"
        },
        {
          "internalType": "bytes",
          "name": "_data",
          "type": "bytes"
        }
      ],
      "name": "safeTransferFrom",
      "outputs": [],
      "stateMutability": "nonpayable",
      "type": "function"
    },
    {
      "inputs": [
        {
          "internalType": "address",
          "name": "operator",
          "type": "address"
        },
        {
          "internalType": "bool",
          "name": "approved",
          "type": "bool"
        }
      ],
      "name": "setApprovalForAll",
      "outputs": [],
      "stateMutability": "nonpayable",
      "type": "function"
    },
    {
      "inputs": [
        {
          "internalType": "bytes4",
          "name": "interfaceId",
          "type": "bytes4"
        }
      ],
      "name": "supportsInterface",
      "outputs": [
        {
          "internalType": "bool",
          "name": "",
          "type": "bool"
        }
      ],
      "stateMutability": "view",
      "type": "function"
    },
    {
      "inputs": [],
      "name": "symbol",
      "outputs": [
        {
          "internalType": "string",
          "name": "",
          "type": "string"
        }
      ],
      "stateMutability": "view",
      "type": "function"
    },
    {
      "inputs": [
        {
          "internalType": "address",
          "name": "_owner",
          "type": "address"
        }
      ],
      "name": "testcontractconnection",
      "outputs": [
        {
          "internalType": "string",
          "name": "",
          "type": "string"
        }
      ],
      "stateMutability": "pure",
      "type": "function"
    },
    {
      "inputs": [
        {
          "internalType": "uint256",
          "name": "tokenId",
          "type": "uint256"
        }
      ],
      "name": "tokenURI",
      "outputs": [
        {
          "internalType": "string",
          "name": "",
          "type": "string"
        }
      ],
      "stateMutability": "view",
      "type": "function"
    },
    {
      "inputs": [
        {
          "internalType": "address",
          "name": "_from",
          "type": "address"
        },
        {
          "internalType": "address",
          "name": "_to",
          "type": "address"
        },
        {
          "internalType": "uint256",
          "name": "_tokenId",
          "type": "uint256"
        }
      ],
      "name": "transferFrom",
      "outputs": [],
      "stateMutability": "nonpayable",
      "type": "function"
    },
    {
      "inputs": [
        {
          "internalType": "address",
          "name": "newOwner",
          "type": "address"
        }
      ],
      "name": "transferOwnership",
      "outputs": [],
      "stateMutability": "nonpayable",
      "type": "function"
    },
    {
      "inputs": [],
      "name": "withdraw",
      "outputs": [],
      "stateMutability": "payable",
      "type": "function"
    }
  ],
  "bytecode": "0x60806040526010600955600954600a6200001a9190620002d6565b600a5562093a80600b5560006010553480156200003657600080fd5b506040518060400160405280600f81526020017f476f6f642046656c6c617a204e465400000000000000000000000000000000008152506040518060400160405280600381526020017f47464e00000000000000000000000000000000000000000000000000000000008152508160009080519060200190620000bb929190620001cb565b508060019080519060200190620000d4929190620001cb565b505050620000f7620000eb620000fd60201b60201c565b6200010560201b60201c565b620004be565b600033905090565b6000600760009054906101000a900473ffffffffffffffffffffffffffffffffffffffff16905081600760006101000a81548173ffffffffffffffffffffffffffffffffffffffff021916908373ffffffffffffffffffffffffffffffffffffffff1602179055508173ffffffffffffffffffffffffffffffffffffffff168173ffffffffffffffffffffffffffffffffffffffff167f8be0079c531659141344cd1fd0a4f28419497f9722a3daafe3b4186f6b6457e060405160405180910390a35050565b828054620001d9906200041d565b90600052602060002090601f016020900481019282620001fd576000855562000249565b82601f106200021857805160ff191683800117855562000249565b8280016001018555821562000249579182015b82811115620002485782518255916020019190600101906200022b565b5b5090506200025891906200025c565b5090565b5b80821115620002775760008160009055506001016200025d565b5090565b6000808291508390505b6001851115620002cd57808604811115620002a557620002a462000453565b5b6001851615620002b55780820291505b8081029050620002c585620004b1565b945062000285565b94509492505050565b6000620002e38262000413565b9150620002f08362000413565b92506200031f7fffffffffffffffffffffffffffffffffffffffffffffffffffffffffffffffff848462000327565b905092915050565b6000826200033957600190506200040c565b816200034957600090506200040c565b81600181146200036257600281146200036d57620003a3565b60019150506200040c565b60ff84111562000382576200038162000453565b5b8360020a9150848211156200039c576200039b62000453565b5b506200040c565b5060208310610133831016604e8410600b8410161715620003dd5782820a905083811115620003d757620003d662000453565b5b6200040c565b620003ec84848460016200027b565b9250905081840481111562000406576200040562000453565b5b81810290505b9392505050565b6000819050919050565b600060028204905060018216806200043657607f821691505b602082108114156200044d576200044c62000482565b5b50919050565b7f4e487b7100000000000000000000000000000000000000000000000000000000600052601160045260246000fd5b7f4e487b7100000000000000000000000000000000000000000000000000000000600052602260045260246000fd5b60008160011c9050919050565b613d3080620004ce6000396000f3fe60806040526004361061019c5760003560e01c8063715018a6116100ec57806395d89b411161008a578063b88d4fde11610064578063b88d4fde146105d8578063c87b56dd14610601578063e985e9c51461063e578063f2fde38b1461067b5761019c565b806395d89b4114610541578063a22cb4651461056c578063a8d4a03b146105955761019c565b806388ea438c116100c657806388ea438c146104925780638a72ec00146104cf5780638d859f3e146104eb5780638da5cb5b146105165761019c565b8063715018a61461041557806379e43c281461042c5780637b0f0a19146104555761019c565b806323b872dd116101595780633ccfd60b116101335780633ccfd60b1461036857806342842e0e146103725780636352211e1461039b57806370a08231146103d85761019c565b806323b872dd146102d757806332cb6b0c146103005780633c168eab1461032b5761019c565b806301ffc9a7146101a157806306fdde03146101de57806307c99f4e14610209578063081812fc14610246578063095ea7b31461028357806309d42b30146102ac575b600080fd5b3480156101ad57600080fd5b506101c860048036038101906101c39190612a66565b6106a4565b6040516101d59190613026565b60405180910390f35b3480156101ea57600080fd5b506101f3610786565b6040516102009190613041565b60405180910390f35b34801561021557600080fd5b50610230600480360381019061022b91906128a3565b610818565b60405161023d9190613004565b60405180910390f35b34801561025257600080fd5b5061026d60048036038101906102689190612b09565b61096b565b60405161027a9190612f9d565b60405180910390f35b34801561028f57600080fd5b506102aa60048036038101906102a59190612a26565b6109f0565b005b3480156102b857600080fd5b506102c1610b0e565b6040516102ce91906132d9565b60405180910390f35b3480156102e357600080fd5b506102fe60048036038101906102f99190612910565b610b13565b005b34801561030c57600080fd5b50610315610bf7565b60405161032291906132d9565b60405180910390f35b34801561033757600080fd5b50610352600480360381019061034d9190612a26565b610bfd565b60405161035f91906132d9565b60405180910390f35b610370610c3f565b005b34801561037e57600080fd5b5061039960048036038101906103949190612910565b610db3565b005b3480156103a757600080fd5b506103c260048036038101906103bd9190612b09565b610dd3565b6040516103cf9190612f9d565b60405180910390f35b3480156103e457600080fd5b506103ff60048036038101906103fa91906128a3565b610e85565b60405161040c91906132d9565b60405180910390f35b34801561042157600080fd5b5061042a610ece565b005b34801561043857600080fd5b50610453600480360381019061044e9190612b36565b610f56565b005b34801561046157600080fd5b5061047c60048036038101906104779190612b09565b610f66565b6040516104899190612f9d565b60405180910390f35b34801561049e57600080fd5b506104b960048036038101906104b491906128a3565b610f99565b6040516104c69190613041565b60405180910390f35b6104e960048036038101906104e49190612ac0565b610fde565b005b3480156104f757600080fd5b506105006110f3565b60405161050d91906132d9565b60405180910390f35b34801561052257600080fd5b5061052b6110f8565b6040516105389190612f9d565b60405180910390f35b34801561054d57600080fd5b50610556611122565b6040516105639190613041565b60405180910390f35b34801561057857600080fd5b50610593600480360381019061058e91906129e6565b6111b4565b005b3480156105a157600080fd5b506105bc60048036038101906105b79190612b09565b6111ca565b6040516105cf9796959493929190613063565b60405180910390f35b3480156105e457600080fd5b506105ff60048036038101906105fa9190612963565b6112a4565b005b34801561060d57600080fd5b5061062860048036038101906106239190612b09565b611306565b6040516106359190613041565b60405180910390f35b34801561064a57600080fd5b50610665600480360381019061066091906128d0565b611458565b6040516106729190613026565b60405180910390f35b34801561068757600080fd5b506106a2600480360381019061069d91906128a3565b6114ec565b005b60007f80ac58cd000000000000000000000000000000000000000000000000000000007bffffffffffffffffffffffffffffffffffffffffffffffffffffffff1916827bffffffffffffffffffffffffffffffffffffffffffffffffffffffff1916148061076f57507f5b5e139f000000000000000000000000000000000000000000000000000000007bffffffffffffffffffffffffffffffffffffffffffffffffffffffff1916827bffffffffffffffffffffffffffffffffffffffffffffffffffffffff1916145b8061077f575061077e826115e4565b5b9050919050565b60606000805461079590613652565b80601f01602080910402602001604051908101604052809291908181526020018280546107c190613652565b801561080e5780601f106107e35761010080835404028352916020019161080e565b820191906000526020600020905b8154815290600101906020018083116107f157829003601f168201915b5050505050905090565b60606000600f60008473ffffffffffffffffffffffffffffffffffffffff1673ffffffffffffffffffffffffffffffffffffffff1681526020019081526020016000205467ffffffffffffffff811115610875576108746137eb565b5b6040519080825280602002602001820160405280156108a35781602001602082028036833780820191505090505b5090506000805b600c80549050811015610960578473ffffffffffffffffffffffffffffffffffffffff16600e600083815260200190815260200160002060009054906101000a900473ffffffffffffffffffffffffffffffffffffffff1673ffffffffffffffffffffffffffffffffffffffff16141561094d5780838381518110610932576109316137bc565b5b6020026020010181815250508180610949906136b5565b9250505b8080610958906136b5565b9150506108aa565b508192505050919050565b60006109768261164e565b6109b5576040517f08c379a00000000000000000000000000000000000000000000000000000000081526004016109ac90613239565b60405180910390fd5b6004600083815260200190815260200160002060009054906101000a900473ffffffffffffffffffffffffffffffffffffffff169050919050565b80600e600082815260200190815260200160002060009054906101000a900473ffffffffffffffffffffffffffffffffffffffff1673ffffffffffffffffffffffffffffffffffffffff163373ffffffffffffffffffffffffffffffffffffffff1614610a5c57600080fd5b82600d600084815260200190815260200160002060006101000a81548173ffffffffffffffffffffffffffffffffffffffff021916908373ffffffffffffffffffffffffffffffffffffffff160217905550818373ffffffffffffffffffffffffffffffffffffffff163373ffffffffffffffffffffffffffffffffffffffff167f8c5be1e5ebec7d5bd14f71427d1e84f3dd0314c0f7b2291e5b200ac8c7c3b92560405160405180910390a4505050565b600581565b3373ffffffffffffffffffffffffffffffffffffffff16600e600083815260200190815260200160002060009054906101000a900473ffffffffffffffffffffffffffffffffffffffff1673ffffffffffffffffffffffffffffffffffffffff161480610bde57503373ffffffffffffffffffffffffffffffffffffffff16600d600083815260200190815260200160002060009054906101000a900473ffffffffffffffffffffffffffffffffffffffff1673ffffffffffffffffffffffffffffffffffffffff16145b610be757600080fd5b610bf28383836116ba565b505050565b61271081565b600080604051806080016040528060508152602001613cab6050913990506000839050610c2a8582611814565b610c348183611832565b809250505092915050565b610c476118a6565b73ffffffffffffffffffffffffffffffffffffffff16610c656110f8565b73ffffffffffffffffffffffffffffffffffffffff1614610cbb576040517f08c379a0000000000000000000000000000000000000000000000000000000008152600401610cb290613259565b60405180910390fd5b600047905060008111610d03576040517f08c379a0000000000000000000000000000000000000000000000000000000008152600401610cfa906131f9565b60405180910390fd5b60003373ffffffffffffffffffffffffffffffffffffffff1682604051610d2990612f88565b60006040518083038185875af1925050503d8060008114610d66576040519150601f19603f3d011682016040523d82523d6000602084013e610d6b565b606091505b5050905080610daf576040517f08c379a0000000000000000000000000000000000000000000000000000000008152600401610da690613299565b60405180910390fd5b5050565b610dce838383604051806020016040528060008152506112a4565b505050565b6000806002600084815260200190815260200160002060009054906101000a900473ffffffffffffffffffffffffffffffffffffffff169050600073ffffffffffffffffffffffffffffffffffffffff168173ffffffffffffffffffffffffffffffffffffffff161415610e7c576040517f08c379a0000000000000000000000000000000000000000000000000000000008152600401610e7390613199565b60405180910390fd5b80915050919050565b6000600f60008373ffffffffffffffffffffffffffffffffffffffff1673ffffffffffffffffffffffffffffffffffffffff168152602001908152602001600020549050919050565b610ed66118a6565b73ffffffffffffffffffffffffffffffffffffffff16610ef46110f8565b73ffffffffffffffffffffffffffffffffffffffff1614610f4a576040517f08c379a0000000000000000000000000000000000000000000000000000000008152600401610f4190613259565b60405180910390fd5b610f5460006118ae565b565b610f61838383611974565b505050565b600e6020528060005260406000206000915054906101000a900473ffffffffffffffffffffffffffffffffffffffff1681565b606060006040518060400160405280601481526020017f48692c2074686973206973207468652074657374000000000000000000000000815250905080915050919050565b670de0b6b3a76400006001610ff3919061350e565b341015611035576040517f08c379a000000000000000000000000000000000000000000000000000000000815260040161102c90613159565b60405180910390fd5b6004600f60003373ffffffffffffffffffffffffffffffffffffffff1673ffffffffffffffffffffffffffffffffffffffff168152602001908152602001600020541061108157600080fd5b600061108c82611b7e565b9050600061109983611b7e565b905060006110a684611b7e565b905060006110b385611b7e565b905060006110c086611b7e565b905060006110d9600b5442611bc390919063ffffffff16565b90506110ea87878388888888611bd9565b50505050505050565b600181565b6000600760009054906101000a900473ffffffffffffffffffffffffffffffffffffffff16905090565b60606001805461113190613652565b80601f016020809104026020016040519081016040528092919081815260200182805461115d90613652565b80156111aa5780601f1061117f576101008083540402835291602001916111aa565b820191906000526020600020905b81548152906001019060200180831161118d57829003601f168201915b5050505050905090565b6111c66111bf6118a6565b8383611dbc565b5050565b600c81815481106111da57600080fd5b90600052602060002090600702016000915090508060000180546111fd90613652565b80601f016020809104026020016040519081016040528092919081815260200182805461122990613652565b80156112765780601f1061124b57610100808354040283529160200191611276565b820191906000526020600020905b81548152906001019060200180831161125957829003601f168201915b5050505050908060010154908060020154908060030154908060040154908060050154908060060154905087565b6112b56112af6118a6565b83611f29565b6112f4576040517f08c379a00000000000000000000000000000000000000000000000000000000081526004016112eb906132b9565b60405180910390fd5b61130084848484612007565b50505050565b60606113118261164e565b611350576040517f08c379a000000000000000000000000000000000000000000000000000000000815260040161134790613219565b60405180910390fd5b600060066000848152602001908152602001600020805461137090613652565b80601f016020809104026020016040519081016040528092919081815260200182805461139c90613652565b80156113e95780601f106113be576101008083540402835291602001916113e9565b820191906000526020600020905b8154815290600101906020018083116113cc57829003601f168201915b5050505050905060006113fa612063565b9050600081511415611410578192505050611453565b60008251111561144557808260405160200161142d929190612f64565b60405160208183030381529060405292505050611453565b61144e8461207a565b925050505b919050565b6000600560008473ffffffffffffffffffffffffffffffffffffffff1673ffffffffffffffffffffffffffffffffffffffff16815260200190815260200160002060008373ffffffffffffffffffffffffffffffffffffffff1673ffffffffffffffffffffffffffffffffffffffff16815260200190815260200160002060009054906101000a900460ff16905092915050565b6114f46118a6565b73ffffffffffffffffffffffffffffffffffffffff166115126110f8565b73ffffffffffffffffffffffffffffffffffffffff1614611568576040517f08c379a000000000000000000000000000000000000000000000000000000000815260040161155f90613259565b60405180910390fd5b600073ffffffffffffffffffffffffffffffffffffffff168173ffffffffffffffffffffffffffffffffffffffff1614156115d8576040517f08c379a00000000000000000000000000000000000000000000000000000000081526004016115cf906130f9565b60405180910390fd5b6115e1816118ae565b50565b60007f01ffc9a7000000000000000000000000000000000000000000000000000000007bffffffffffffffffffffffffffffffffffffffffffffffffffffffff1916827bffffffffffffffffffffffffffffffffffffffffffffffffffffffff1916149050919050565b60008073ffffffffffffffffffffffffffffffffffffffff166002600084815260200190815260200160002060009054906101000a900473ffffffffffffffffffffffffffffffffffffffff1673ffffffffffffffffffffffffffffffffffffffff1614159050919050565b61170d6001600f60008573ffffffffffffffffffffffffffffffffffffffff1673ffffffffffffffffffffffffffffffffffffffff16815260200190815260200160002054611bc390919063ffffffff16565b506117616001600f60008673ffffffffffffffffffffffffffffffffffffffff1673ffffffffffffffffffffffffffffffffffffffff1681526020019081526020016000205461212190919063ffffffff16565b5081600e600083815260200190815260200160002060006101000a81548173ffffffffffffffffffffffffffffffffffffffff021916908373ffffffffffffffffffffffffffffffffffffffff160217905550808273ffffffffffffffffffffffffffffffffffffffff168473ffffffffffffffffffffffffffffffffffffffff167fddf252ad1be2c89b69c2b068fc378daa952ba7f163c4a11628f55a4df523b3ef60405160405180910390a4505050565b61182e828260405180602001604052806000815250612137565b5050565b61183b8261164e565b61187a576040517f08c379a0000000000000000000000000000000000000000000000000000000008152600401611871906131b9565b60405180910390fd5b806006600084815260200190815260200160002090805190602001906118a19291906126b7565b505050565b600033905090565b6000600760009054906101000a900473ffffffffffffffffffffffffffffffffffffffff16905081600760006101000a81548173ffffffffffffffffffffffffffffffffffffffff021916908373ffffffffffffffffffffffffffffffffffffffff1602179055508173ffffffffffffffffffffffffffffffffffffffff168173ffffffffffffffffffffffffffffffffffffffff167f8be0079c531659141344cd1fd0a4f28419497f9722a3daafe3b4186f6b6457e060405160405180910390a35050565b600e600084815260200190815260200160002060009054906101000a900473ffffffffffffffffffffffffffffffffffffffff1673ffffffffffffffffffffffffffffffffffffffff163373ffffffffffffffffffffffffffffffffffffffff16146119df57600080fd5b600e600083815260200190815260200160002060009054906101000a900473ffffffffffffffffffffffffffffffffffffffff1673ffffffffffffffffffffffffffffffffffffffff163373ffffffffffffffffffffffffffffffffffffffff1614611a4a57600080fd5b6000600c8481548110611a6057611a5f6137bc565b5b90600052602060002090600702019050611a7981612192565b611a8257600080fd5b6000600c8481548110611a9857611a976137bc565b5b90600052602060002090600702019050611ab181612192565b611aba57600080fd5b6000611ae3600283600101548560010154611ad59190613487565b6121a390919063ffffffff16565b90506000611b0e600284600401548660040154611b009190613487565b6121a390919063ffffffff16565b90506000611b1b86611b7e565b90506000611b2887611b7e565b90506000611b3588611b7e565b90506000611b4e600b5442611bc390919063ffffffff16565b9050611b5f8987838887878a611bd9565b611b68886121b9565b611b71876121b9565b5050505050505050505050565b60008082604051602001611b929190612f4d565b6040516020818303038152906040528051906020012060001c9050600a5481611bbb91906136fe565b915050919050565b60008183611bd19190613487565b905092915050565b600c6040518060e00160405280898152602001888152602001611c07600b5442611bc390919063ffffffff16565b81526020018681526020018581526020018481526020018381525090806001815401808255809150506001900390600052602060002090600702016000909190919091506000820151816000019080519060200190611c679291906126b7565b506020820151816001015560408201518160020155606082015181600301556080820151816004015560a0820151816005015560c08201518160060155505060006001600c80549050611cba9190613568565b905033600e600083815260200190815260200160002060006101000a81548173ffffffffffffffffffffffffffffffffffffffff021916908373ffffffffffffffffffffffffffffffffffffffff160217905550611d616001600f60003373ffffffffffffffffffffffffffffffffffffffff1673ffffffffffffffffffffffffffffffffffffffff16815260200190815260200160002054611bc390919063ffffffff16565b507f28718445e7ad70895979b809a25c86ae483783bf3dd74f43e3bde8f0719ae6588189898989898989604051611d9f9897969594939291906132f4565b60405180910390a1611db13388610bfd565b505050505050505050565b8173ffffffffffffffffffffffffffffffffffffffff168373ffffffffffffffffffffffffffffffffffffffff161415611e2b576040517f08c379a0000000000000000000000000000000000000000000000000000000008152600401611e2290613139565b60405180910390fd5b80600560008573ffffffffffffffffffffffffffffffffffffffff1673ffffffffffffffffffffffffffffffffffffffff16815260200190815260200160002060008473ffffffffffffffffffffffffffffffffffffffff1673ffffffffffffffffffffffffffffffffffffffff16815260200190815260200160002060006101000a81548160ff0219169083151502179055508173ffffffffffffffffffffffffffffffffffffffff168373ffffffffffffffffffffffffffffffffffffffff167f17307eab39ab6107e8899845ad3d59bd9653f200f220920489ca2b5937696c3183604051611f1c9190613026565b60405180910390a3505050565b6000611f348261164e565b611f73576040517f08c379a0000000000000000000000000000000000000000000000000000000008152600401611f6a90613179565b60405180910390fd5b6000611f7e83610dd3565b90508073ffffffffffffffffffffffffffffffffffffffff168473ffffffffffffffffffffffffffffffffffffffff161480611fed57508373ffffffffffffffffffffffffffffffffffffffff16611fd58461096b565b73ffffffffffffffffffffffffffffffffffffffff16145b80611ffe5750611ffd8185611458565b5b91505092915050565b6120128484846116ba565b61201e848484846121d9565b61205d576040517f08c379a0000000000000000000000000000000000000000000000000000000008152600401612054906130d9565b60405180910390fd5b50505050565b606060405180602001604052806000815250905090565b60606120858261164e565b6120c4576040517f08c379a00000000000000000000000000000000000000000000000000000000081526004016120bb90613279565b60405180910390fd5b60006120ce612063565b905060008151116120ee5760405180602001604052806000815250612119565b806120f884612370565b604051602001612109929190612f64565b6040516020818303038152906040525b915050919050565b6000818361212f9190613568565b905092915050565b61214183836124d1565b61214e60008484846121d9565b61218d576040517f08c379a0000000000000000000000000000000000000000000000000000000008152600401612184906130d9565b60405180910390fd5b505050565b600042826002015411159050919050565b600081836121b191906134dd565b905092915050565b6121ce600b5442611bc390919063ffffffff16565b816002018190555050565b60006121fa8473ffffffffffffffffffffffffffffffffffffffff1661269f565b15612363578373ffffffffffffffffffffffffffffffffffffffff1663150b7a026122236118a6565b8786866040518563ffffffff1660e01b81526004016122459493929190612fb8565b602060405180830381600087803b15801561225f57600080fd5b505af192505050801561229057506040513d601f19601f8201168201806040525081019061228d9190612a93565b60015b612313573d80600081146122c0576040519150601f19603f3d011682016040523d82523d6000602084013e6122c5565b606091505b5060008151141561230b576040517f08c379a0000000000000000000000000000000000000000000000000000000008152600401612302906130d9565b60405180910390fd5b805181602001fd5b63150b7a0260e01b7bffffffffffffffffffffffffffffffffffffffffffffffffffffffff1916817bffffffffffffffffffffffffffffffffffffffffffffffffffffffff191614915050612368565b600190505b949350505050565b606060008214156123b8576040518060400160405280600181526020017f300000000000000000000000000000000000000000000000000000000000000081525090506124cc565b600082905060005b600082146123ea5780806123d3906136b5565b915050600a826123e391906134dd565b91506123c0565b60008167ffffffffffffffff811115612406576124056137eb565b5b6040519080825280601f01601f1916602001820160405280156124385781602001600182028036833780820191505090505b5090505b600085146124c5576001826124519190613568565b9150600a8561246091906136fe565b603061246c9190613487565b60f81b818381518110612482576124816137bc565b5b60200101907effffffffffffffffffffffffffffffffffffffffffffffffffffffffffffff1916908160001a905350600a856124be91906134dd565b945061243c565b8093505050505b919050565b600073ffffffffffffffffffffffffffffffffffffffff168273ffffffffffffffffffffffffffffffffffffffff161415612541576040517f08c379a0000000000000000000000000000000000000000000000000000000008152600401612538906131d9565b60405180910390fd5b61254a8161164e565b1561258a576040517f08c379a000000000000000000000000000000000000000000000000000000000815260040161258190613119565b60405180910390fd5b612596600083836126b2565b6001600360008473ffffffffffffffffffffffffffffffffffffffff1673ffffffffffffffffffffffffffffffffffffffff16815260200190815260200160002060008282546125e69190613487565b92505081905550816002600083815260200190815260200160002060006101000a81548173ffffffffffffffffffffffffffffffffffffffff021916908373ffffffffffffffffffffffffffffffffffffffff160217905550808273ffffffffffffffffffffffffffffffffffffffff16600073ffffffffffffffffffffffffffffffffffffffff167fddf252ad1be2c89b69c2b068fc378daa952ba7f163c4a11628f55a4df523b3ef60405160405180910390a45050565b600080823b905060008111915050919050565b505050565b8280546126c390613652565b90600052602060002090601f0160209004810192826126e5576000855561272c565b82601f106126fe57805160ff191683800117855561272c565b8280016001018555821561272c579182015b8281111561272b578251825591602001919060010190612710565b5b509050612739919061273d565b5090565b5b8082111561275657600081600090555060010161273e565b5090565b600061276d6127688461339e565b613379565b9050828152602081018484840111156127895761278861381f565b5b612794848285613610565b509392505050565b60006127af6127aa846133cf565b613379565b9050828152602081018484840111156127cb576127ca61381f565b5b6127d6848285613610565b509392505050565b6000813590506127ed81613c4e565b92915050565b60008135905061280281613c65565b92915050565b60008135905061281781613c7c565b92915050565b60008151905061282c81613c7c565b92915050565b600082601f8301126128475761284661381a565b5b813561285784826020860161275a565b91505092915050565b600082601f8301126128755761287461381a565b5b813561288584826020860161279c565b91505092915050565b60008135905061289d81613c93565b92915050565b6000602082840312156128b9576128b8613829565b5b60006128c7848285016127de565b91505092915050565b600080604083850312156128e7576128e6613829565b5b60006128f5858286016127de565b9250506020612906858286016127de565b9150509250929050565b60008060006060848603121561292957612928613829565b5b6000612937868287016127de565b9350506020612948868287016127de565b92505060406129598682870161288e565b9150509250925092565b6000806000806080858703121561297d5761297c613829565b5b600061298b878288016127de565b945050602061299c878288016127de565b93505060406129ad8782880161288e565b925050606085013567ffffffffffffffff8111156129ce576129cd613824565b5b6129da87828801612832565b91505092959194509250565b600080604083850312156129fd576129fc613829565b5b6000612a0b858286016127de565b9250506020612a1c858286016127f3565b9150509250929050565b60008060408385031215612a3d57612a3c613829565b5b6000612a4b858286016127de565b9250506020612a5c8582860161288e565b9150509250929050565b600060208284031215612a7c57612a7b613829565b5b6000612a8a84828501612808565b91505092915050565b600060208284031215612aa957612aa8613829565b5b6000612ab78482850161281d565b91505092915050565b600060208284031215612ad657612ad5613829565b5b600082013567ffffffffffffffff811115612af457612af3613824565b5b612b0084828501612860565b91505092915050565b600060208284031215612b1f57612b1e613829565b5b6000612b2d8482850161288e565b91505092915050565b600080600060608486031215612b4f57612b4e613829565b5b6000612b5d8682870161288e565b9350506020612b6e8682870161288e565b925050604084013567ffffffffffffffff811115612b8f57612b8e613824565b5b612b9b86828701612860565b9150509250925092565b6000612bb18383612f2f565b60208301905092915050565b612bc68161359c565b82525050565b6000612bd782613410565b612be1818561343e565b9350612bec83613400565b8060005b83811015612c1d578151612c048882612ba5565b9750612c0f83613431565b925050600181019050612bf0565b5085935050505092915050565b612c33816135ae565b82525050565b6000612c448261341b565b612c4e818561344f565b9350612c5e81856020860161361f565b612c678161382e565b840191505092915050565b6000612c7d82613426565b612c87818561346b565b9350612c9781856020860161361f565b612ca08161382e565b840191505092915050565b6000612cb682613426565b612cc0818561347c565b9350612cd081856020860161361f565b80840191505092915050565b6000612ce960328361346b565b9150612cf48261383f565b604082019050919050565b6000612d0c60268361346b565b9150612d178261388e565b604082019050919050565b6000612d2f601c8361346b565b9150612d3a826138dd565b602082019050919050565b6000612d5260198361346b565b9150612d5d82613906565b602082019050919050565b6000612d7560228361346b565b9150612d808261392f565b604082019050919050565b6000612d98602c8361346b565b9150612da38261397e565b604082019050919050565b6000612dbb60298361346b565b9150612dc6826139cd565b604082019050919050565b6000612dde602e8361346b565b9150612de982613a1c565b604082019050919050565b6000612e0160208361346b565b9150612e0c82613a6b565b602082019050919050565b6000612e2460198361346b565b9150612e2f82613a94565b602082019050919050565b6000612e4760318361346b565b9150612e5282613abd565b604082019050919050565b6000612e6a602c8361346b565b9150612e7582613b0c565b604082019050919050565b6000612e8d60208361346b565b9150612e9882613b5b565b602082019050919050565b6000612eb0602f8361346b565b9150612ebb82613b84565b604082019050919050565b6000612ed3600083613460565b9150612ede82613bd3565b600082019050919050565b6000612ef660108361346b565b9150612f0182613bd6565b602082019050919050565b6000612f1960318361346b565b9150612f2482613bff565b604082019050919050565b612f3881613606565b82525050565b612f4781613606565b82525050565b6000612f598284612cab565b915081905092915050565b6000612f708285612cab565b9150612f7c8284612cab565b91508190509392505050565b6000612f9382612ec6565b9150819050919050565b6000602082019050612fb26000830184612bbd565b92915050565b6000608082019050612fcd6000830187612bbd565b612fda6020830186612bbd565b612fe76040830185612f3e565b8181036060830152612ff98184612c39565b905095945050505050565b6000602082019050818103600083015261301e8184612bcc565b905092915050565b600060208201905061303b6000830184612c2a565b92915050565b6000602082019050818103600083015261305b8184612c72565b905092915050565b600060e082019050818103600083015261307d818a612c72565b905061308c6020830189612f3e565b6130996040830188612f3e565b6130a66060830187612f3e565b6130b36080830186612f3e565b6130c060a0830185612f3e565b6130cd60c0830184612f3e565b98975050505050505050565b600060208201905081810360008301526130f281612cdc565b9050919050565b6000602082019050818103600083015261311281612cff565b9050919050565b6000602082019050818103600083015261313281612d22565b9050919050565b6000602082019050818103600083015261315281612d45565b9050919050565b6000602082019050818103600083015261317281612d68565b9050919050565b6000602082019050818103600083015261319281612d8b565b9050919050565b600060208201905081810360008301526131b281612dae565b9050919050565b600060208201905081810360008301526131d281612dd1565b9050919050565b600060208201905081810360008301526131f281612df4565b9050919050565b6000602082019050818103600083015261321281612e17565b9050919050565b6000602082019050818103600083015261323281612e3a565b9050919050565b6000602082019050818103600083015261325281612e5d565b9050919050565b6000602082019050818103600083015261327281612e80565b9050919050565b6000602082019050818103600083015261329281612ea3565b9050919050565b600060208201905081810360008301526132b281612ee9565b9050919050565b600060208201905081810360008301526132d281612f0c565b9050919050565b60006020820190506132ee6000830184612f3e565b92915050565b60006101008201905061330a600083018b612f3e565b818103602083015261331c818a612c72565b905061332b6040830189612f3e565b6133386060830188612f3e565b6133456080830187612f3e565b61335260a0830186612f3e565b61335f60c0830185612f3e565b61336c60e0830184612f3e565b9998505050505050505050565b6000613383613394565b905061338f8282613684565b919050565b6000604051905090565b600067ffffffffffffffff8211156133b9576133b86137eb565b5b6133c28261382e565b9050602081019050919050565b600067ffffffffffffffff8211156133ea576133e96137eb565b5b6133f38261382e565b9050602081019050919050565b6000819050602082019050919050565b600081519050919050565b600081519050919050565b600081519050919050565b6000602082019050919050565b600082825260208201905092915050565b600082825260208201905092915050565b600081905092915050565b600082825260208201905092915050565b600081905092915050565b600061349282613606565b915061349d83613606565b9250827fffffffffffffffffffffffffffffffffffffffffffffffffffffffffffffffff038211156134d2576134d161372f565b5b828201905092915050565b60006134e882613606565b91506134f383613606565b9250826135035761350261375e565b5b828204905092915050565b600061351982613606565b915061352483613606565b9250817fffffffffffffffffffffffffffffffffffffffffffffffffffffffffffffffff048311821515161561355d5761355c61372f565b5b828202905092915050565b600061357382613606565b915061357e83613606565b9250828210156135915761359061372f565b5b828203905092915050565b60006135a7826135e6565b9050919050565b60008115159050919050565b60007fffffffff0000000000000000000000000000000000000000000000000000000082169050919050565b600073ffffffffffffffffffffffffffffffffffffffff82169050919050565b6000819050919050565b82818337600083830152505050565b60005b8381101561363d578082015181840152602081019050613622565b8381111561364c576000848401525b50505050565b6000600282049050600182168061366a57607f821691505b6020821081141561367e5761367d61378d565b5b50919050565b61368d8261382e565b810181811067ffffffffffffffff821117156136ac576136ab6137eb565b5b80604052505050565b60006136c082613606565b91507fffffffffffffffffffffffffffffffffffffffffffffffffffffffffffffffff8214156136f3576136f261372f565b5b600182019050919050565b600061370982613606565b915061371483613606565b9250826137245761372361375e565b5b828206905092915050565b7f4e487b7100000000000000000000000000000000000000000000000000000000600052601160045260246000fd5b7f4e487b7100000000000000000000000000000000000000000000000000000000600052601260045260246000fd5b7f4e487b7100000000000000000000000000000000000000000000000000000000600052602260045260246000fd5b7f4e487b7100000000000000000000000000000000000000000000000000000000600052603260045260246000fd5b7f4e487b7100000000000000000000000000000000000000000000000000000000600052604160045260246000fd5b600080fd5b600080fd5b600080fd5b600080fd5b6000601f19601f8301169050919050565b7f4552433732313a207472616e7366657220746f206e6f6e20455243373231526560008201527f63656976657220696d706c656d656e7465720000000000000000000000000000602082015250565b7f4f776e61626c653a206e6577206f776e657220697320746865207a65726f206160008201527f6464726573730000000000000000000000000000000000000000000000000000602082015250565b7f4552433732313a20746f6b656e20616c7265616479206d696e74656400000000600082015250565b7f4552433732313a20617070726f766520746f2063616c6c657200000000000000600082015250565b7f4e6f7420656e6f75676820657468657220746f207075726368617365204e465460008201527f732e000000000000000000000000000000000000000000000000000000000000602082015250565b7f4552433732313a206f70657261746f7220717565727920666f72206e6f6e657860008201527f697374656e7420746f6b656e0000000000000000000000000000000000000000602082015250565b7f4552433732313a206f776e657220717565727920666f72206e6f6e657869737460008201527f656e7420746f6b656e0000000000000000000000000000000000000000000000602082015250565b7f45524337323155524953746f726167653a2055524920736574206f66206e6f6e60008201527f6578697374656e7420746f6b656e000000000000000000000000000000000000602082015250565b7f4552433732313a206d696e7420746f20746865207a65726f2061646472657373600082015250565b7f4e6f206574686572206c65667420746f20776974686472617700000000000000600082015250565b7f45524337323155524953746f726167653a2055524920717565727920666f722060008201527f6e6f6e6578697374656e7420746f6b656e000000000000000000000000000000602082015250565b7f4552433732313a20617070726f76656420717565727920666f72206e6f6e657860008201527f697374656e7420746f6b656e0000000000000000000000000000000000000000602082015250565b7f4f776e61626c653a2063616c6c6572206973206e6f7420746865206f776e6572600082015250565b7f4552433732314d657461646174613a2055524920717565727920666f72206e6f60008201527f6e6578697374656e7420746f6b656e0000000000000000000000000000000000602082015250565b50565b7f5472616e73666572206661696c65642e00000000000000000000000000000000600082015250565b7f4552433732313a207472616e736665722063616c6c6572206973206e6f74206f60008201527f776e6572206e6f7220617070726f766564000000000000000000000000000000602082015250565b613c578161359c565b8114613c6257600080fd5b50565b613c6e816135ae565b8114613c7957600080fd5b50565b613c85816135ba565b8114613c9057600080fd5b50565b613c9c81613606565b8114613ca757600080fd5b5056fe68747470733a2f2f676174657761792e70696e6174612e636c6f75642f697066732f516d513544713442754a7662763848684177363950536d4d687439764d3778597337457a7a53576b43456b633254a2646970667358221220a887578afbb3f9fac2a9b96a640ee88a56fbfabbf0aefe9f4f0c008428e704d464736f6c63430008070033",
  "linkReferences": {},
  "deployedLinkReferences": {}
}