{
  "_format": "hh-sol-artifact-1",
  "contractName": "HeroContract",
  "sourceName": "contracts/hero.sol",
  "abi": [
    {
      "inputs": [],
      "stateMutability": "nonpayable",
      "type": "constructor"
    },
    {
      "anonymous": false,
      "inputs": [
        {
          "indexed": true,
          "internalType": "address",
          "name": "owner",
          "type": "address"
        },
        {
          "indexed": true,
          "internalType": "address",
          "name": "approved",
          "type": "address"
        },
        {
          "indexed": true,
          "internalType": "uint256",
          "name": "tokenId",
          "type": "uint256"
        }
      ],
      "name": "Approval",
      "type": "event"
    },
    {
      "anonymous": false,
      "inputs": [
        {
          "indexed": true,
          "internalType": "address",
          "name": "owner",
          "type": "address"
        },
        {
          "indexed": true,
          "internalType": "address",
          "name": "operator",
          "type": "address"
        },
        {
          "indexed": false,
          "internalType": "bool",
          "name": "approved",
          "type": "bool"
        }
      ],
      "name": "ApprovalForAll",
      "type": "event"
    },
    {
      "anonymous": false,
      "inputs": [
        {
          "indexed": true,
          "internalType": "address",
          "name": "previousOwner",
          "type": "address"
        },
        {
          "indexed": true,
          "internalType": "address",
          "name": "newOwner",
          "type": "address"
        }
      ],
      "name": "OwnershipTransferred",
      "type": "event"
    },
    {
      "anonymous": false,
      "inputs": [
        {
          "indexed": true,
          "internalType": "address",
          "name": "from",
          "type": "address"
        },
        {
          "indexed": true,
          "internalType": "address",
          "name": "to",
          "type": "address"
        },
        {
          "indexed": true,
          "internalType": "uint256",
          "name": "tokenId",
          "type": "uint256"
        }
      ],
      "name": "Transfer",
      "type": "event"
    },
    {
      "anonymous": false,
      "inputs": [
        {
          "indexed": false,
          "internalType": "uint256",
          "name": "heroId",
          "type": "uint256"
        },
        {
          "indexed": false,
          "internalType": "string",
          "name": "name",
          "type": "string"
        },
        {
          "indexed": false,
          "internalType": "uint256",
          "name": "dna",
          "type": "uint256"
        },
        {
          "indexed": false,
          "internalType": "uint256",
          "name": "patk",
          "type": "uint256"
        },
        {
          "indexed": false,
          "internalType": "uint256",
          "name": "readyTime",
          "type": "uint256"
        }
      ],
      "name": "newHero",
      "type": "event"
    },
    {
      "inputs": [
        {
          "internalType": "address",
          "name": "to",
          "type": "address"
        },
        {
          "internalType": "uint256",
          "name": "tokenId",
          "type": "uint256"
        }
      ],
      "name": "approve",
      "outputs": [],
      "stateMutability": "nonpayable",
      "type": "function"
    },
    {
      "inputs": [
        {
          "internalType": "address",
          "name": "_owner",
          "type": "address"
        }
      ],
      "name": "balanceOf",
      "outputs": [
        {
          "internalType": "uint256",
          "name": "_balance",
          "type": "uint256"
        }
      ],
      "stateMutability": "view",
      "type": "function"
    },
    {
      "inputs": [
        {
          "internalType": "string",
          "name": "_name",
          "type": "string"
        }
      ],
      "name": "createRandomHero",
      "outputs": [],
      "stateMutability": "payable",
      "type": "function"
    },
    {
      "inputs": [
        {
          "internalType": "uint256",
          "name": "tokenId",
          "type": "uint256"
        }
      ],
      "name": "getApproved",
      "outputs": [
        {
          "internalType": "address",
          "name": "",
          "type": "address"
        }
      ],
      "stateMutability": "view",
      "type": "function"
    },
    {
      "inputs": [
        {
          "internalType": "address",
          "name": "_owner",
          "type": "address"
        }
      ],
      "name": "getHeroesByOwner",
      "outputs": [
        {
          "internalType": "uint256[]",
          "name": "",
          "type": "uint256[]"
        }
      ],
      "stateMutability": "view",
      "type": "function"
    },
    {
      "inputs": [
        {
          "internalType": "uint256",
          "name": "",
          "type": "uint256"
        }
      ],
      "name": "heroToOwner",
      "outputs": [
        {
          "internalType": "address",
          "name": "",
          "type": "address"
        }
      ],
      "stateMutability": "view",
      "type": "function"
    },
    {
      "inputs": [
        {
          "internalType": "uint256",
          "name": "",
          "type": "uint256"
        }
      ],
      "name": "heroes",
      "outputs": [
        {
          "internalType": "string",
          "name": "name",
          "type": "string"
        },
        {
          "internalType": "uint256",
          "name": "dna",
          "type": "uint256"
        },
        {
          "internalType": "uint256",
          "name": "patk",
          "type": "uint256"
        },
        {
          "internalType": "uint256",
          "name": "readyTime",
          "type": "uint256"
        }
      ],
      "stateMutability": "view",
      "type": "function"
    },
    {
      "inputs": [
        {
          "internalType": "address",
          "name": "owner",
          "type": "address"
        },
        {
          "internalType": "address",
          "name": "operator",
          "type": "address"
        }
      ],
      "name": "isApprovedForAll",
      "outputs": [
        {
          "internalType": "bool",
          "name": "",
          "type": "bool"
        }
      ],
      "stateMutability": "view",
      "type": "function"
    },
    {
      "inputs": [
        {
          "internalType": "address",
          "name": "recipient",
          "type": "address"
        },
        {
          "internalType": "string",
          "name": "tokenURI",
          "type": "string"
        }
      ],
      "name": "mintNFT",
      "outputs": [
        {
          "internalType": "uint256",
          "name": "",
          "type": "uint256"
        }
      ],
      "stateMutability": "nonpayable",
      "type": "function"
    },
    {
      "inputs": [],
      "name": "name",
      "outputs": [
        {
          "internalType": "string",
          "name": "",
          "type": "string"
        }
      ],
      "stateMutability": "view",
      "type": "function"
    },
    {
      "inputs": [],
      "name": "owner",
      "outputs": [
        {
          "internalType": "address",
          "name": "",
          "type": "address"
        }
      ],
      "stateMutability": "view",
      "type": "function"
    },
    {
      "inputs": [
        {
          "internalType": "uint256",
          "name": "_tokenId",
          "type": "uint256"
        }
      ],
      "name": "ownerOf",
      "outputs": [
        {
          "internalType": "address",
          "name": "_owner",
          "type": "address"
        }
      ],
      "stateMutability": "view",
      "type": "function"
    },
    {
      "inputs": [],
      "name": "renounceOwnership",
      "outputs": [],
      "stateMutability": "nonpayable",
      "type": "function"
    },
    {
      "inputs": [
        {
          "internalType": "address",
          "name": "from",
          "type": "address"
        },
        {
          "internalType": "address",
          "name": "to",
          "type": "address"
        },
        {
          "internalType": "uint256",
          "name": "tokenId",
          "type": "uint256"
        }
      ],
      "name": "safeTransferFrom",
      "outputs": [],
      "stateMutability": "nonpayable",
      "type": "function"
    },
    {
      "inputs": [
        {
          "internalType": "address",
          "name": "from",
          "type": "address"
        },
        {
          "internalType": "address",
          "name": "to",
          "type": "address"
        },
        {
          "internalType": "uint256",
          "name": "tokenId",
          "type": "uint256"
        },
        {
          "internalType": "bytes",
          "name": "_data",
          "type": "bytes"
        }
      ],
      "name": "safeTransferFrom",
      "outputs": [],
      "stateMutability": "nonpayable",
      "type": "function"
    },
    {
      "inputs": [
        {
          "internalType": "address",
          "name": "operator",
          "type": "address"
        },
        {
          "internalType": "bool",
          "name": "approved",
          "type": "bool"
        }
      ],
      "name": "setApprovalForAll",
      "outputs": [],
      "stateMutability": "nonpayable",
      "type": "function"
    },
    {
      "inputs": [
        {
          "internalType": "bytes4",
          "name": "interfaceId",
          "type": "bytes4"
        }
      ],
      "name": "supportsInterface",
      "outputs": [
        {
          "internalType": "bool",
          "name": "",
          "type": "bool"
        }
      ],
      "stateMutability": "view",
      "type": "function"
    },
    {
      "inputs": [],
      "name": "symbol",
      "outputs": [
        {
          "internalType": "string",
          "name": "",
          "type": "string"
        }
      ],
      "stateMutability": "view",
      "type": "function"
    },
    {
      "inputs": [
        {
          "internalType": "uint256",
          "name": "tokenId",
          "type": "uint256"
        }
      ],
      "name": "tokenURI",
      "outputs": [
        {
          "internalType": "string",
          "name": "",
          "type": "string"
        }
      ],
      "stateMutability": "view",
      "type": "function"
    },
    {
      "inputs": [
        {
          "internalType": "address",
          "name": "from",
          "type": "address"
        },
        {
          "internalType": "address",
          "name": "to",
          "type": "address"
        },
        {
          "internalType": "uint256",
          "name": "tokenId",
          "type": "uint256"
        }
      ],
      "name": "transferFrom",
      "outputs": [],
      "stateMutability": "nonpayable",
      "type": "function"
    },
    {
      "inputs": [
        {
          "internalType": "address",
          "name": "newOwner",
          "type": "address"
        }
      ],
      "name": "transferOwnership",
      "outputs": [],
      "stateMutability": "nonpayable",
      "type": "function"
    }
  ],
  "bytecode": "0x60806040526010600855600854600a6200001a9190620002cf565b60095562093a80600a553480156200003157600080fd5b506040518060400160405280600f81526020017f476f6f642046656c6c617a204e465400000000000000000000000000000000008152506040518060400160405280600381526020017f47464e0000000000000000000000000000000000000000000000000000000000815250620000be620000b2620000f860201b60201c565b6200010060201b60201c565b8160019080519060200190620000d6929190620001c4565b508060029080519060200190620000ef929190620001c4565b505050620004b7565b600033905090565b60008060009054906101000a900473ffffffffffffffffffffffffffffffffffffffff169050816000806101000a81548173ffffffffffffffffffffffffffffffffffffffff021916908373ffffffffffffffffffffffffffffffffffffffff1602179055508173ffffffffffffffffffffffffffffffffffffffff168173ffffffffffffffffffffffffffffffffffffffff167f8be0079c531659141344cd1fd0a4f28419497f9722a3daafe3b4186f6b6457e060405160405180910390a35050565b828054620001d29062000416565b90600052602060002090601f016020900481019282620001f6576000855562000242565b82601f106200021157805160ff191683800117855562000242565b8280016001018555821562000242579182015b828111156200024157825182559160200191906001019062000224565b5b50905062000251919062000255565b5090565b5b808211156200027057600081600090555060010162000256565b5090565b6000808291508390505b6001851115620002c6578086048111156200029e576200029d6200044c565b5b6001851615620002ae5780820291505b8081029050620002be85620004aa565b94506200027e565b94509492505050565b6000620002dc826200040c565b9150620002e9836200040c565b9250620003187fffffffffffffffffffffffffffffffffffffffffffffffffffffffffffffffff848462000320565b905092915050565b60008262000332576001905062000405565b8162000342576000905062000405565b81600181146200035b576002811462000366576200039c565b600191505062000405565b60ff8411156200037b576200037a6200044c565b5b8360020a9150848211156200039557620003946200044c565b5b5062000405565b5060208310610133831016604e8410600b8410161715620003d65782820a905083811115620003d057620003cf6200044c565b5b62000405565b620003e5848484600162000274565b92509050818404811115620003ff57620003fe6200044c565b5b81810290505b9392505050565b6000819050919050565b600060028204905060018216806200042f57607f821691505b602082108114156200044657620004456200047b565b5b50919050565b7f4e487b7100000000000000000000000000000000000000000000000000000000600052601160045260246000fd5b7f4e487b7100000000000000000000000000000000000000000000000000000000600052602260045260246000fd5b60008160011c9050919050565b6137b280620004c76000396000f3fe60806040526004361061012a5760003560e01c80637b0f0a19116100ab578063a8d4a03b1161006f578063a8d4a03b146103f5578063b88d4fde14610435578063c87b56dd1461045e578063e985e9c51461049b578063eacabe14146104d8578063f2fde38b146105155761012a565b80637b0f0a191461031d5780638a72ec001461035a5780638da5cb5b1461037657806395d89b41146103a1578063a22cb465146103cc5761012a565b806323b872dd116100f257806323b872dd1461023a57806342842e0e146102635780636352211e1461028c57806370a08231146102c9578063715018a6146103065761012a565b806301ffc9a71461012f57806306fdde031461016c57806307c99f4e14610197578063081812fc146101d4578063095ea7b314610211575b600080fd5b34801561013b57600080fd5b506101566004803603810190610151919061256e565b61053e565b6040516101639190612aaa565b60405180910390f35b34801561017857600080fd5b50610181610620565b60405161018e9190612ac5565b60405180910390f35b3480156101a357600080fd5b506101be60048036038101906101b9919061234f565b6106b2565b6040516101cb9190612a88565b60405180910390f35b3480156101e057600080fd5b506101fb60048036038101906101f69190612611565b610805565b6040516102089190612a21565b60405180910390f35b34801561021d57600080fd5b506102386004803603810190610233919061252e565b61088a565b005b34801561024657600080fd5b50610261600480360381019061025c91906123bc565b6109a2565b005b34801561026f57600080fd5b5061028a600480360381019061028591906123bc565b610a02565b005b34801561029857600080fd5b506102b360048036038101906102ae9190612611565b610a22565b6040516102c09190612a21565b60405180910390f35b3480156102d557600080fd5b506102f060048036038101906102eb919061234f565b610a5f565b6040516102fd9190612d53565b60405180910390f35b34801561031257600080fd5b5061031b610aa8565b005b34801561032957600080fd5b50610344600480360381019061033f9190612611565b610b30565b6040516103519190612a21565b60405180910390f35b610374600480360381019061036f91906125c8565b610b63565b005b34801561038257600080fd5b5061038b610c00565b6040516103989190612a21565b60405180910390f35b3480156103ad57600080fd5b506103b6610c29565b6040516103c39190612ac5565b60405180910390f35b3480156103d857600080fd5b506103f360048036038101906103ee9190612492565b610cbb565b005b34801561040157600080fd5b5061041c60048036038101906104179190612611565b610cd1565b60405161042c9493929190612ae7565b60405180910390f35b34801561044157600080fd5b5061045c6004803603810190610457919061240f565b610d99565b005b34801561046a57600080fd5b5061048560048036038101906104809190612611565b610dfb565b6040516104929190612ac5565b60405180910390f35b3480156104a757600080fd5b506104c260048036038101906104bd919061237c565b610f4d565b6040516104cf9190612aaa565b60405180910390f35b3480156104e457600080fd5b506104ff60048036038101906104fa91906124d2565b610fe1565b60405161050c9190612d53565b60405180910390f35b34801561052157600080fd5b5061053c6004803603810190610537919061234f565b611019565b005b60007f80ac58cd000000000000000000000000000000000000000000000000000000007bffffffffffffffffffffffffffffffffffffffffffffffffffffffff1916827bffffffffffffffffffffffffffffffffffffffffffffffffffffffff1916148061060957507f5b5e139f000000000000000000000000000000000000000000000000000000007bffffffffffffffffffffffffffffffffffffffffffffffffffffffff1916827bffffffffffffffffffffffffffffffffffffffffffffffffffffffff1916145b80610619575061061882611111565b5b9050919050565b60606001805461062f9061303c565b80601f016020809104026020016040519081016040528092919081815260200182805461065b9061303c565b80156106a85780601f1061067d576101008083540402835291602001916106a8565b820191906000526020600020905b81548152906001019060200180831161068b57829003601f168201915b5050505050905090565b60606000600e60008473ffffffffffffffffffffffffffffffffffffffff1673ffffffffffffffffffffffffffffffffffffffff1681526020019081526020016000205467ffffffffffffffff81111561070f5761070e6131d5565b5b60405190808252806020026020018201604052801561073d5781602001602082028036833780820191505090505b5090506000805b600c805490508110156107fa578473ffffffffffffffffffffffffffffffffffffffff16600d600083815260200190815260200160002060009054906101000a900473ffffffffffffffffffffffffffffffffffffffff1673ffffffffffffffffffffffffffffffffffffffff1614156107e757808383815181106107cc576107cb6131a6565b5b60200260200101818152505081806107e39061309f565b9250505b80806107f29061309f565b915050610744565b508192505050919050565b60006108108261117b565b61084f576040517f08c379a000000000000000000000000000000000000000000000000000000000815260040161084690612c93565b60405180910390fd5b6005600083815260200190815260200160002060009054906101000a900473ffffffffffffffffffffffffffffffffffffffff169050919050565b6000610895826111e7565b90508073ffffffffffffffffffffffffffffffffffffffff168373ffffffffffffffffffffffffffffffffffffffff161415610906576040517f08c379a00000000000000000000000000000000000000000000000000000000081526004016108fd90612d13565b60405180910390fd5b8073ffffffffffffffffffffffffffffffffffffffff16610925611299565b73ffffffffffffffffffffffffffffffffffffffff16148061095457506109538161094e611299565b610f4d565b5b610993576040517f08c379a000000000000000000000000000000000000000000000000000000000815260040161098a90612bf3565b60405180910390fd5b61099d83836112a1565b505050565b6109b36109ad611299565b8261135a565b6109f2576040517f08c379a00000000000000000000000000000000000000000000000000000000081526004016109e990612d33565b60405180910390fd5b6109fd838383611438565b505050565b610a1d83838360405180602001604052806000815250610d99565b505050565b6000600d600083815260200190815260200160002060009054906101000a900473ffffffffffffffffffffffffffffffffffffffff169050919050565b6000600e60008373ffffffffffffffffffffffffffffffffffffffff1673ffffffffffffffffffffffffffffffffffffffff168152602001908152602001600020549050919050565b610ab0611299565b73ffffffffffffffffffffffffffffffffffffffff16610ace610c00565b73ffffffffffffffffffffffffffffffffffffffff1614610b24576040517f08c379a0000000000000000000000000000000000000000000000000000000008152600401610b1b90612cb3565b60405180910390fd5b610b2e6000611694565b565b600d6020528060005260406000206000915054906101000a900473ffffffffffffffffffffffffffffffffffffffff1681565b6005600e60003373ffffffffffffffffffffffffffffffffffffffff1673ffffffffffffffffffffffffffffffffffffffff1681526020019081526020016000205410610baf57600080fd5b6000610bba82611758565b9050606481610bc991906130e8565b81610bd49190612f52565b9050600060649050610bfb838383600a5442610bf09190612ecb565b63ffffffff1661179d565b505050565b60008060009054906101000a900473ffffffffffffffffffffffffffffffffffffffff16905090565b606060028054610c389061303c565b80601f0160208091040260200160405190810160405280929190818152602001828054610c649061303c565b8015610cb15780601f10610c8657610100808354040283529160200191610cb1565b820191906000526020600020905b815481529060010190602001808311610c9457829003601f168201915b5050505050905090565b610ccd610cc6611299565b8383611966565b5050565b600c8181548110610ce157600080fd5b9060005260206000209060040201600091509050806000018054610d049061303c565b80601f0160208091040260200160405190810160405280929190818152602001828054610d309061303c565b8015610d7d5780601f10610d5257610100808354040283529160200191610d7d565b820191906000526020600020905b815481529060010190602001808311610d6057829003601f168201915b5050505050908060010154908060020154908060030154905084565b610daa610da4611299565b8361135a565b610de9576040517f08c379a0000000000000000000000000000000000000000000000000000000008152600401610de090612d33565b60405180910390fd5b610df584848484611ad3565b50505050565b6060610e068261117b565b610e45576040517f08c379a0000000000000000000000000000000000000000000000000000000008152600401610e3c90612c73565b60405180910390fd5b6000600760008481526020019081526020016000208054610e659061303c565b80601f0160208091040260200160405190810160405280929190818152602001828054610e919061303c565b8015610ede5780601f10610eb357610100808354040283529160200191610ede565b820191906000526020600020905b815481529060010190602001808311610ec157829003601f168201915b505050505090506000610eef611b2f565b9050600081511415610f05578192505050610f48565b600082511115610f3a578082604051602001610f229291906129fd565b60405160208183030381529060405292505050610f48565b610f4384611b46565b925050505b919050565b6000600660008473ffffffffffffffffffffffffffffffffffffffff1673ffffffffffffffffffffffffffffffffffffffff16815260200190815260200160002060008373ffffffffffffffffffffffffffffffffffffffff1673ffffffffffffffffffffffffffffffffffffffff16815260200190815260200160002060009054906101000a900460ff16905092915050565b6000610fed600b611bed565b6000610ff9600b611c03565b90506110058482611c11565b61100f8184611ddf565b8091505092915050565b611021611299565b73ffffffffffffffffffffffffffffffffffffffff1661103f610c00565b73ffffffffffffffffffffffffffffffffffffffff1614611095576040517f08c379a000000000000000000000000000000000000000000000000000000000815260040161108c90612cb3565b60405180910390fd5b600073ffffffffffffffffffffffffffffffffffffffff168173ffffffffffffffffffffffffffffffffffffffff161415611105576040517f08c379a00000000000000000000000000000000000000000000000000000000081526004016110fc90612b53565b60405180910390fd5b61110e81611694565b50565b60007f01ffc9a7000000000000000000000000000000000000000000000000000000007bffffffffffffffffffffffffffffffffffffffffffffffffffffffff1916827bffffffffffffffffffffffffffffffffffffffffffffffffffffffff1916149050919050565b60008073ffffffffffffffffffffffffffffffffffffffff166003600084815260200190815260200160002060009054906101000a900473ffffffffffffffffffffffffffffffffffffffff1673ffffffffffffffffffffffffffffffffffffffff1614159050919050565b6000806003600084815260200190815260200160002060009054906101000a900473ffffffffffffffffffffffffffffffffffffffff169050600073ffffffffffffffffffffffffffffffffffffffff168173ffffffffffffffffffffffffffffffffffffffff161415611290576040517f08c379a000000000000000000000000000000000000000000000000000000000815260040161128790612c13565b60405180910390fd5b80915050919050565b600033905090565b816005600083815260200190815260200160002060006101000a81548173ffffffffffffffffffffffffffffffffffffffff021916908373ffffffffffffffffffffffffffffffffffffffff160217905550808273ffffffffffffffffffffffffffffffffffffffff16611314836111e7565b73ffffffffffffffffffffffffffffffffffffffff167f8c5be1e5ebec7d5bd14f71427d1e84f3dd0314c0f7b2291e5b200ac8c7c3b92560405160405180910390a45050565b60006113658261117b565b6113a4576040517f08c379a000000000000000000000000000000000000000000000000000000000815260040161139b90612bd3565b60405180910390fd5b60006113af836111e7565b90508073ffffffffffffffffffffffffffffffffffffffff168473ffffffffffffffffffffffffffffffffffffffff16148061141e57508373ffffffffffffffffffffffffffffffffffffffff1661140684610805565b73ffffffffffffffffffffffffffffffffffffffff16145b8061142f575061142e8185610f4d565b5b91505092915050565b8273ffffffffffffffffffffffffffffffffffffffff16611458826111e7565b73ffffffffffffffffffffffffffffffffffffffff16146114ae576040517f08c379a00000000000000000000000000000000000000000000000000000000081526004016114a590612cd3565b60405180910390fd5b600073ffffffffffffffffffffffffffffffffffffffff168273ffffffffffffffffffffffffffffffffffffffff16141561151e576040517f08c379a000000000000000000000000000000000000000000000000000000000815260040161151590612b93565b60405180910390fd5b611529838383611e53565b6115346000826112a1565b6001600460008573ffffffffffffffffffffffffffffffffffffffff1673ffffffffffffffffffffffffffffffffffffffff16815260200190815260200160002060008282546115849190612f52565b925050819055506001600460008473ffffffffffffffffffffffffffffffffffffffff1673ffffffffffffffffffffffffffffffffffffffff16815260200190815260200160002060008282546115db9190612ecb565b92505081905550816003600083815260200190815260200160002060006101000a81548173ffffffffffffffffffffffffffffffffffffffff021916908373ffffffffffffffffffffffffffffffffffffffff160217905550808273ffffffffffffffffffffffffffffffffffffffff168473ffffffffffffffffffffffffffffffffffffffff167fddf252ad1be2c89b69c2b068fc378daa952ba7f163c4a11628f55a4df523b3ef60405160405180910390a4505050565b60008060009054906101000a900473ffffffffffffffffffffffffffffffffffffffff169050816000806101000a81548173ffffffffffffffffffffffffffffffffffffffff021916908373ffffffffffffffffffffffffffffffffffffffff1602179055508173ffffffffffffffffffffffffffffffffffffffff168173ffffffffffffffffffffffffffffffffffffffff167f8be0079c531659141344cd1fd0a4f28419497f9722a3daafe3b4186f6b6457e060405160405180910390a35050565b6000808260405160200161176c91906129e6565b6040516020818303038152906040528051906020012060001c90506009548161179591906130e8565b915050919050565b600c604051806080016040528086815260200185815260200160018152602001600a54426117cb9190612ecb565b63ffffffff1681525090806001815401808255809150506001900390600052602060002090600402016000909190919091506000820151816000019080519060200190611819929190612163565b50602082015181600101556040820151816002015560608201518160030155505060006001600c8054905061184e9190612f52565b905033600d600083815260200190815260200160002060006101000a81548173ffffffffffffffffffffffffffffffffffffffff021916908373ffffffffffffffffffffffffffffffffffffffff160217905550600e60003373ffffffffffffffffffffffffffffffffffffffff1673ffffffffffffffffffffffffffffffffffffffff16815260200190815260200160002060008154809291906118f29061309f565b91905055507f462c151c187c44753e3753efa2df0b8d9ec2741c4a0bdffcecfa823054db5618818686868660405161192e959493929190612d6e565b60405180910390a1600060405180608001604052806050815260200161372d60509139905061195d3382610fe1565b50505050505050565b8173ffffffffffffffffffffffffffffffffffffffff168373ffffffffffffffffffffffffffffffffffffffff1614156119d5576040517f08c379a00000000000000000000000000000000000000000000000000000000081526004016119cc90612bb3565b60405180910390fd5b80600660008573ffffffffffffffffffffffffffffffffffffffff1673ffffffffffffffffffffffffffffffffffffffff16815260200190815260200160002060008473ffffffffffffffffffffffffffffffffffffffff1673ffffffffffffffffffffffffffffffffffffffff16815260200190815260200160002060006101000a81548160ff0219169083151502179055508173ffffffffffffffffffffffffffffffffffffffff168373ffffffffffffffffffffffffffffffffffffffff167f17307eab39ab6107e8899845ad3d59bd9653f200f220920489ca2b5937696c3183604051611ac69190612aaa565b60405180910390a3505050565b611ade848484611438565b611aea84848484611e58565b611b29576040517f08c379a0000000000000000000000000000000000000000000000000000000008152600401611b2090612b33565b60405180910390fd5b50505050565b606060405180602001604052806000815250905090565b6060611b518261117b565b611b90576040517f08c379a0000000000000000000000000000000000000000000000000000000008152600401611b8790612cf3565b60405180910390fd5b6000611b9a611b2f565b90506000815111611bba5760405180602001604052806000815250611be5565b80611bc484611fef565b604051602001611bd59291906129fd565b6040516020818303038152906040525b915050919050565b6001816000016000828254019250508190555050565b600081600001549050919050565b600073ffffffffffffffffffffffffffffffffffffffff168273ffffffffffffffffffffffffffffffffffffffff161415611c81576040517f08c379a0000000000000000000000000000000000000000000000000000000008152600401611c7890612c53565b60405180910390fd5b611c8a8161117b565b15611cca576040517f08c379a0000000000000000000000000000000000000000000000000000000008152600401611cc190612b73565b60405180910390fd5b611cd660008383611e53565b6001600460008473ffffffffffffffffffffffffffffffffffffffff1673ffffffffffffffffffffffffffffffffffffffff1681526020019081526020016000206000828254611d269190612ecb565b92505081905550816003600083815260200190815260200160002060006101000a81548173ffffffffffffffffffffffffffffffffffffffff021916908373ffffffffffffffffffffffffffffffffffffffff160217905550808273ffffffffffffffffffffffffffffffffffffffff16600073ffffffffffffffffffffffffffffffffffffffff167fddf252ad1be2c89b69c2b068fc378daa952ba7f163c4a11628f55a4df523b3ef60405160405180910390a45050565b611de88261117b565b611e27576040517f08c379a0000000000000000000000000000000000000000000000000000000008152600401611e1e90612c33565b60405180910390fd5b80600760008481526020019081526020016000209080519060200190611e4e929190612163565b505050565b505050565b6000611e798473ffffffffffffffffffffffffffffffffffffffff16612150565b15611fe2578373ffffffffffffffffffffffffffffffffffffffff1663150b7a02611ea2611299565b8786866040518563ffffffff1660e01b8152600401611ec49493929190612a3c565b602060405180830381600087803b158015611ede57600080fd5b505af1925050508015611f0f57506040513d601f19601f82011682018060405250810190611f0c919061259b565b60015b611f92573d8060008114611f3f576040519150601f19603f3d011682016040523d82523d6000602084013e611f44565b606091505b50600081511415611f8a576040517f08c379a0000000000000000000000000000000000000000000000000000000008152600401611f8190612b33565b60405180910390fd5b805181602001fd5b63150b7a0260e01b7bffffffffffffffffffffffffffffffffffffffffffffffffffffffff1916817bffffffffffffffffffffffffffffffffffffffffffffffffffffffff191614915050611fe7565b600190505b949350505050565b60606000821415612037576040518060400160405280600181526020017f3000000000000000000000000000000000000000000000000000000000000000815250905061214b565b600082905060005b600082146120695780806120529061309f565b915050600a826120629190612f21565b915061203f565b60008167ffffffffffffffff811115612085576120846131d5565b5b6040519080825280601f01601f1916602001820160405280156120b75781602001600182028036833780820191505090505b5090505b60008514612144576001826120d09190612f52565b9150600a856120df91906130e8565b60306120eb9190612ecb565b60f81b818381518110612101576121006131a6565b5b60200101907effffffffffffffffffffffffffffffffffffffffffffffffffffffffffffff1916908160001a905350600a8561213d9190612f21565b94506120bb565b8093505050505b919050565b600080823b905060008111915050919050565b82805461216f9061303c565b90600052602060002090601f01602090048101928261219157600085556121d8565b82601f106121aa57805160ff19168380011785556121d8565b828001600101855582156121d8579182015b828111156121d75782518255916020019190600101906121bc565b5b5090506121e591906121e9565b5090565b5b808211156122025760008160009055506001016121ea565b5090565b600061221961221484612ded565b612dc8565b90508281526020810184848401111561223557612234613209565b5b612240848285612ffa565b509392505050565b600061225b61225684612e1e565b612dc8565b90508281526020810184848401111561227757612276613209565b5b612282848285612ffa565b509392505050565b600081359050612299816136d0565b92915050565b6000813590506122ae816136e7565b92915050565b6000813590506122c3816136fe565b92915050565b6000815190506122d8816136fe565b92915050565b600082601f8301126122f3576122f2613204565b5b8135612303848260208601612206565b91505092915050565b600082601f83011261232157612320613204565b5b8135612331848260208601612248565b91505092915050565b60008135905061234981613715565b92915050565b60006020828403121561236557612364613213565b5b60006123738482850161228a565b91505092915050565b6000806040838503121561239357612392613213565b5b60006123a18582860161228a565b92505060206123b28582860161228a565b9150509250929050565b6000806000606084860312156123d5576123d4613213565b5b60006123e38682870161228a565b93505060206123f48682870161228a565b92505060406124058682870161233a565b9150509250925092565b6000806000806080858703121561242957612428613213565b5b60006124378782880161228a565b94505060206124488782880161228a565b93505060406124598782880161233a565b925050606085013567ffffffffffffffff81111561247a5761247961320e565b5b612486878288016122de565b91505092959194509250565b600080604083850312156124a9576124a8613213565b5b60006124b78582860161228a565b92505060206124c88582860161229f565b9150509250929050565b600080604083850312156124e9576124e8613213565b5b60006124f78582860161228a565b925050602083013567ffffffffffffffff8111156125185761251761320e565b5b6125248582860161230c565b9150509250929050565b6000806040838503121561254557612544613213565b5b60006125538582860161228a565b92505060206125648582860161233a565b9150509250929050565b60006020828403121561258457612583613213565b5b6000612592848285016122b4565b91505092915050565b6000602082840312156125b1576125b0613213565b5b60006125bf848285016122c9565b91505092915050565b6000602082840312156125de576125dd613213565b5b600082013567ffffffffffffffff8111156125fc576125fb61320e565b5b6126088482850161230c565b91505092915050565b60006020828403121561262757612626613213565b5b60006126358482850161233a565b91505092915050565b600061264a83836129c8565b60208301905092915050565b61265f81612f86565b82525050565b600061267082612e5f565b61267a8185612e8d565b935061268583612e4f565b8060005b838110156126b657815161269d888261263e565b97506126a883612e80565b925050600181019050612689565b5085935050505092915050565b6126cc81612f98565b82525050565b60006126dd82612e6a565b6126e78185612e9e565b93506126f7818560208601613009565b61270081613218565b840191505092915050565b600061271682612e75565b6127208185612eaf565b9350612730818560208601613009565b61273981613218565b840191505092915050565b600061274f82612e75565b6127598185612ec0565b9350612769818560208601613009565b80840191505092915050565b6000612782603283612eaf565b915061278d82613229565b604082019050919050565b60006127a5602683612eaf565b91506127b082613278565b604082019050919050565b60006127c8601c83612eaf565b91506127d3826132c7565b602082019050919050565b60006127eb602483612eaf565b91506127f6826132f0565b604082019050919050565b600061280e601983612eaf565b91506128198261333f565b602082019050919050565b6000612831602c83612eaf565b915061283c82613368565b604082019050919050565b6000612854603883612eaf565b915061285f826133b7565b604082019050919050565b6000612877602983612eaf565b915061288282613406565b604082019050919050565b600061289a602e83612eaf565b91506128a582613455565b604082019050919050565b60006128bd602083612eaf565b91506128c8826134a4565b602082019050919050565b60006128e0603183612eaf565b91506128eb826134cd565b604082019050919050565b6000612903602c83612eaf565b915061290e8261351c565b604082019050919050565b6000612926602083612eaf565b91506129318261356b565b602082019050919050565b6000612949602983612eaf565b915061295482613594565b604082019050919050565b600061296c602f83612eaf565b9150612977826135e3565b604082019050919050565b600061298f602183612eaf565b915061299a82613632565b604082019050919050565b60006129b2603183612eaf565b91506129bd82613681565b604082019050919050565b6129d181612ff0565b82525050565b6129e081612ff0565b82525050565b60006129f28284612744565b915081905092915050565b6000612a098285612744565b9150612a158284612744565b91508190509392505050565b6000602082019050612a366000830184612656565b92915050565b6000608082019050612a516000830187612656565b612a5e6020830186612656565b612a6b60408301856129d7565b8181036060830152612a7d81846126d2565b905095945050505050565b60006020820190508181036000830152612aa28184612665565b905092915050565b6000602082019050612abf60008301846126c3565b92915050565b60006020820190508181036000830152612adf818461270b565b905092915050565b60006080820190508181036000830152612b01818761270b565b9050612b1060208301866129d7565b612b1d60408301856129d7565b612b2a60608301846129d7565b95945050505050565b60006020820190508181036000830152612b4c81612775565b9050919050565b60006020820190508181036000830152612b6c81612798565b9050919050565b60006020820190508181036000830152612b8c816127bb565b9050919050565b60006020820190508181036000830152612bac816127de565b9050919050565b60006020820190508181036000830152612bcc81612801565b9050919050565b60006020820190508181036000830152612bec81612824565b9050919050565b60006020820190508181036000830152612c0c81612847565b9050919050565b60006020820190508181036000830152612c2c8161286a565b9050919050565b60006020820190508181036000830152612c4c8161288d565b9050919050565b60006020820190508181036000830152612c6c816128b0565b9050919050565b60006020820190508181036000830152612c8c816128d3565b9050919050565b60006020820190508181036000830152612cac816128f6565b9050919050565b60006020820190508181036000830152612ccc81612919565b9050919050565b60006020820190508181036000830152612cec8161293c565b9050919050565b60006020820190508181036000830152612d0c8161295f565b9050919050565b60006020820190508181036000830152612d2c81612982565b9050919050565b60006020820190508181036000830152612d4c816129a5565b9050919050565b6000602082019050612d6860008301846129d7565b92915050565b600060a082019050612d8360008301886129d7565b8181036020830152612d95818761270b565b9050612da460408301866129d7565b612db160608301856129d7565b612dbe60808301846129d7565b9695505050505050565b6000612dd2612de3565b9050612dde828261306e565b919050565b6000604051905090565b600067ffffffffffffffff821115612e0857612e076131d5565b5b612e1182613218565b9050602081019050919050565b600067ffffffffffffffff821115612e3957612e386131d5565b5b612e4282613218565b9050602081019050919050565b6000819050602082019050919050565b600081519050919050565b600081519050919050565b600081519050919050565b6000602082019050919050565b600082825260208201905092915050565b600082825260208201905092915050565b600082825260208201905092915050565b600081905092915050565b6000612ed682612ff0565b9150612ee183612ff0565b9250827fffffffffffffffffffffffffffffffffffffffffffffffffffffffffffffffff03821115612f1657612f15613119565b5b828201905092915050565b6000612f2c82612ff0565b9150612f3783612ff0565b925082612f4757612f46613148565b5b828204905092915050565b6000612f5d82612ff0565b9150612f6883612ff0565b925082821015612f7b57612f7a613119565b5b828203905092915050565b6000612f9182612fd0565b9050919050565b60008115159050919050565b60007fffffffff0000000000000000000000000000000000000000000000000000000082169050919050565b600073ffffffffffffffffffffffffffffffffffffffff82169050919050565b6000819050919050565b82818337600083830152505050565b60005b8381101561302757808201518184015260208101905061300c565b83811115613036576000848401525b50505050565b6000600282049050600182168061305457607f821691505b6020821081141561306857613067613177565b5b50919050565b61307782613218565b810181811067ffffffffffffffff82111715613096576130956131d5565b5b80604052505050565b60006130aa82612ff0565b91507fffffffffffffffffffffffffffffffffffffffffffffffffffffffffffffffff8214156130dd576130dc613119565b5b600182019050919050565b60006130f382612ff0565b91506130fe83612ff0565b92508261310e5761310d613148565b5b828206905092915050565b7f4e487b7100000000000000000000000000000000000000000000000000000000600052601160045260246000fd5b7f4e487b7100000000000000000000000000000000000000000000000000000000600052601260045260246000fd5b7f4e487b7100000000000000000000000000000000000000000000000000000000600052602260045260246000fd5b7f4e487b7100000000000000000000000000000000000000000000000000000000600052603260045260246000fd5b7f4e487b7100000000000000000000000000000000000000000000000000000000600052604160045260246000fd5b600080fd5b600080fd5b600080fd5b600080fd5b6000601f19601f8301169050919050565b7f4552433732313a207472616e7366657220746f206e6f6e20455243373231526560008201527f63656976657220696d706c656d656e7465720000000000000000000000000000602082015250565b7f4f776e61626c653a206e6577206f776e657220697320746865207a65726f206160008201527f6464726573730000000000000000000000000000000000000000000000000000602082015250565b7f4552433732313a20746f6b656e20616c7265616479206d696e74656400000000600082015250565b7f4552433732313a207472616e7366657220746f20746865207a65726f2061646460008201527f7265737300000000000000000000000000000000000000000000000000000000602082015250565b7f4552433732313a20617070726f766520746f2063616c6c657200000000000000600082015250565b7f4552433732313a206f70657261746f7220717565727920666f72206e6f6e657860008201527f697374656e7420746f6b656e0000000000000000000000000000000000000000602082015250565b7f4552433732313a20617070726f76652063616c6c6572206973206e6f74206f7760008201527f6e6572206e6f7220617070726f76656420666f7220616c6c0000000000000000602082015250565b7f4552433732313a206f776e657220717565727920666f72206e6f6e657869737460008201527f656e7420746f6b656e0000000000000000000000000000000000000000000000602082015250565b7f45524337323155524953746f726167653a2055524920736574206f66206e6f6e60008201527f6578697374656e7420746f6b656e000000000000000000000000000000000000602082015250565b7f4552433732313a206d696e7420746f20746865207a65726f2061646472657373600082015250565b7f45524337323155524953746f726167653a2055524920717565727920666f722060008201527f6e6f6e6578697374656e7420746f6b656e000000000000000000000000000000602082015250565b7f4552433732313a20617070726f76656420717565727920666f72206e6f6e657860008201527f697374656e7420746f6b656e0000000000000000000000000000000000000000602082015250565b7f4f776e61626c653a2063616c6c6572206973206e6f7420746865206f776e6572600082015250565b7f4552433732313a207472616e73666572206f6620746f6b656e2074686174206960008201527f73206e6f74206f776e0000000000000000000000000000000000000000000000602082015250565b7f4552433732314d657461646174613a2055524920717565727920666f72206e6f60008201527f6e6578697374656e7420746f6b656e0000000000000000000000000000000000602082015250565b7f4552433732313a20617070726f76616c20746f2063757272656e74206f776e6560008201527f7200000000000000000000000000000000000000000000000000000000000000602082015250565b7f4552433732313a207472616e736665722063616c6c6572206973206e6f74206f60008201527f776e6572206e6f7220617070726f766564000000000000000000000000000000602082015250565b6136d981612f86565b81146136e457600080fd5b50565b6136f081612f98565b81146136fb57600080fd5b50565b61370781612fa4565b811461371257600080fd5b50565b61371e81612ff0565b811461372957600080fd5b5056fe68747470733a2f2f676174657761792e70696e6174612e636c6f75642f697066732f516d513544713442754a7662763848684177363950536d4d687439764d3778597337457a7a53576b43456b633254a2646970667358221220f46548586da33e04777779a33896c8beffb3195b1d116160385f7d59e477000d64736f6c63430008070033",
  "linkReferences": {},
  "deployedLinkReferences": {}
}