{
  "_format": "hh-sol-artifact-1",
  "contractName": "HeroContract",
  "sourceName": "contracts/hero.sol",
  "abi": [
    {
      "anonymous": false,
      "inputs": [
        {
          "indexed": true,
          "internalType": "address",
          "name": "owner",
          "type": "address"
        },
        {
          "indexed": true,
          "internalType": "address",
          "name": "approved",
          "type": "address"
        },
        {
          "indexed": true,
          "internalType": "uint256",
          "name": "tokenId",
          "type": "uint256"
        }
      ],
      "name": "Approval",
      "type": "event"
    },
    {
      "anonymous": false,
      "inputs": [
        {
          "indexed": true,
          "internalType": "address",
          "name": "owner",
          "type": "address"
        },
        {
          "indexed": true,
          "internalType": "address",
          "name": "operator",
          "type": "address"
        },
        {
          "indexed": false,
          "internalType": "bool",
          "name": "approved",
          "type": "bool"
        }
      ],
      "name": "ApprovalForAll",
      "type": "event"
    },
    {
      "anonymous": false,
      "inputs": [
        {
          "indexed": true,
          "internalType": "address",
          "name": "previousOwner",
          "type": "address"
        },
        {
          "indexed": true,
          "internalType": "address",
          "name": "newOwner",
          "type": "address"
        }
      ],
      "name": "OwnershipTransferred",
      "type": "event"
    },
    {
      "anonymous": false,
      "inputs": [
        {
          "indexed": true,
          "internalType": "address",
          "name": "from",
          "type": "address"
        },
        {
          "indexed": true,
          "internalType": "address",
          "name": "to",
          "type": "address"
        },
        {
          "indexed": true,
          "internalType": "uint256",
          "name": "tokenId",
          "type": "uint256"
        }
      ],
      "name": "Transfer",
      "type": "event"
    },
    {
      "anonymous": false,
      "inputs": [
        {
          "indexed": false,
          "internalType": "uint256",
          "name": "heroId",
          "type": "uint256"
        },
        {
          "indexed": false,
          "internalType": "string",
          "name": "name",
          "type": "string"
        },
        {
          "indexed": false,
          "internalType": "uint256",
          "name": "dna",
          "type": "uint256"
        },
        {
          "indexed": false,
          "internalType": "uint256",
          "name": "patk",
          "type": "uint256"
        },
        {
          "indexed": false,
          "internalType": "uint256",
          "name": "readyTime",
          "type": "uint256"
        }
      ],
      "name": "newHero",
      "type": "event"
    },
    {
      "inputs": [
        {
          "internalType": "address",
          "name": "to",
          "type": "address"
        },
        {
          "internalType": "uint256",
          "name": "tokenId",
          "type": "uint256"
        }
      ],
      "name": "approve",
      "outputs": [],
      "stateMutability": "nonpayable",
      "type": "function"
    },
    {
      "inputs": [
        {
          "internalType": "address",
          "name": "_owner",
          "type": "address"
        }
      ],
      "name": "balanceOf",
      "outputs": [
        {
          "internalType": "uint256",
          "name": "_balance",
          "type": "uint256"
        }
      ],
      "stateMutability": "view",
      "type": "function"
    },
    {
      "inputs": [
        {
          "internalType": "string",
          "name": "_name",
          "type": "string"
        }
      ],
      "name": "createRandomHero",
      "outputs": [],
      "stateMutability": "payable",
      "type": "function"
    },
    {
      "inputs": [
        {
          "internalType": "uint256",
          "name": "tokenId",
          "type": "uint256"
        }
      ],
      "name": "getApproved",
      "outputs": [
        {
          "internalType": "address",
          "name": "",
          "type": "address"
        }
      ],
      "stateMutability": "view",
      "type": "function"
    },
    {
      "inputs": [
        {
          "internalType": "address",
          "name": "_owner",
          "type": "address"
        }
      ],
      "name": "getHeroesByOwner",
      "outputs": [
        {
          "internalType": "uint256[]",
          "name": "",
          "type": "uint256[]"
        }
      ],
      "stateMutability": "view",
      "type": "function"
    },
    {
      "inputs": [
        {
          "internalType": "uint256",
          "name": "",
          "type": "uint256"
        }
      ],
      "name": "heroToOwner",
      "outputs": [
        {
          "internalType": "address",
          "name": "",
          "type": "address"
        }
      ],
      "stateMutability": "view",
      "type": "function"
    },
    {
      "inputs": [
        {
          "internalType": "uint256",
          "name": "",
          "type": "uint256"
        }
      ],
      "name": "heroes",
      "outputs": [
        {
          "internalType": "string",
          "name": "name",
          "type": "string"
        },
        {
          "internalType": "uint256",
          "name": "dna",
          "type": "uint256"
        },
        {
          "internalType": "uint256",
          "name": "patk",
          "type": "uint256"
        },
        {
          "internalType": "uint256",
          "name": "readyTime",
          "type": "uint256"
        }
      ],
      "stateMutability": "view",
      "type": "function"
    },
    {
      "inputs": [],
      "name": "initialize",
      "outputs": [],
      "stateMutability": "nonpayable",
      "type": "function"
    },
    {
      "inputs": [
        {
          "internalType": "address",
          "name": "owner",
          "type": "address"
        },
        {
          "internalType": "address",
          "name": "operator",
          "type": "address"
        }
      ],
      "name": "isApprovedForAll",
      "outputs": [
        {
          "internalType": "bool",
          "name": "",
          "type": "bool"
        }
      ],
      "stateMutability": "view",
      "type": "function"
    },
    {
      "inputs": [
        {
          "internalType": "address",
          "name": "recipient",
          "type": "address"
        },
        {
          "internalType": "string",
          "name": "tokenURI",
          "type": "string"
        }
      ],
      "name": "mintNFT",
      "outputs": [
        {
          "internalType": "uint256",
          "name": "",
          "type": "uint256"
        }
      ],
      "stateMutability": "nonpayable",
      "type": "function"
    },
    {
      "inputs": [],
      "name": "name",
      "outputs": [
        {
          "internalType": "string",
          "name": "",
          "type": "string"
        }
      ],
      "stateMutability": "view",
      "type": "function"
    },
    {
      "inputs": [],
      "name": "owner",
      "outputs": [
        {
          "internalType": "address",
          "name": "",
          "type": "address"
        }
      ],
      "stateMutability": "view",
      "type": "function"
    },
    {
      "inputs": [
        {
          "internalType": "uint256",
          "name": "_tokenId",
          "type": "uint256"
        }
      ],
      "name": "ownerOf",
      "outputs": [
        {
          "internalType": "address",
          "name": "_owner",
          "type": "address"
        }
      ],
      "stateMutability": "view",
      "type": "function"
    },
    {
      "inputs": [],
      "name": "renderHelloWorld",
      "outputs": [
        {
          "internalType": "string",
          "name": "",
          "type": "string"
        }
      ],
      "stateMutability": "pure",
      "type": "function"
    },
    {
      "inputs": [],
      "name": "renounceOwnership",
      "outputs": [],
      "stateMutability": "nonpayable",
      "type": "function"
    },
    {
      "inputs": [
        {
          "internalType": "address",
          "name": "from",
          "type": "address"
        },
        {
          "internalType": "address",
          "name": "to",
          "type": "address"
        },
        {
          "internalType": "uint256",
          "name": "tokenId",
          "type": "uint256"
        }
      ],
      "name": "safeTransferFrom",
      "outputs": [],
      "stateMutability": "nonpayable",
      "type": "function"
    },
    {
      "inputs": [
        {
          "internalType": "address",
          "name": "from",
          "type": "address"
        },
        {
          "internalType": "address",
          "name": "to",
          "type": "address"
        },
        {
          "internalType": "uint256",
          "name": "tokenId",
          "type": "uint256"
        },
        {
          "internalType": "bytes",
          "name": "_data",
          "type": "bytes"
        }
      ],
      "name": "safeTransferFrom",
      "outputs": [],
      "stateMutability": "nonpayable",
      "type": "function"
    },
    {
      "inputs": [
        {
          "internalType": "address",
          "name": "operator",
          "type": "address"
        },
        {
          "internalType": "bool",
          "name": "approved",
          "type": "bool"
        }
      ],
      "name": "setApprovalForAll",
      "outputs": [],
      "stateMutability": "nonpayable",
      "type": "function"
    },
    {
      "inputs": [
        {
          "internalType": "bytes4",
          "name": "interfaceId",
          "type": "bytes4"
        }
      ],
      "name": "supportsInterface",
      "outputs": [
        {
          "internalType": "bool",
          "name": "",
          "type": "bool"
        }
      ],
      "stateMutability": "view",
      "type": "function"
    },
    {
      "inputs": [],
      "name": "symbol",
      "outputs": [
        {
          "internalType": "string",
          "name": "",
          "type": "string"
        }
      ],
      "stateMutability": "view",
      "type": "function"
    },
    {
      "inputs": [
        {
          "internalType": "uint256",
          "name": "tokenId",
          "type": "uint256"
        }
      ],
      "name": "tokenURI",
      "outputs": [
        {
          "internalType": "string",
          "name": "",
          "type": "string"
        }
      ],
      "stateMutability": "view",
      "type": "function"
    },
    {
      "inputs": [
        {
          "internalType": "address",
          "name": "from",
          "type": "address"
        },
        {
          "internalType": "address",
          "name": "to",
          "type": "address"
        },
        {
          "internalType": "uint256",
          "name": "tokenId",
          "type": "uint256"
        }
      ],
      "name": "transferFrom",
      "outputs": [],
      "stateMutability": "nonpayable",
      "type": "function"
    },
    {
      "inputs": [
        {
          "internalType": "address",
          "name": "newOwner",
          "type": "address"
        }
      ],
      "name": "transferOwnership",
      "outputs": [],
      "stateMutability": "nonpayable",
      "type": "function"
    }
  ],
  "bytecode": "0x608060405234801561001057600080fd5b5061416f806100206000396000f3fe6080604052600436106101405760003560e01c80638129fc1c116100b6578063a8d4a03b1161006f578063a8d4a03b1461044d578063b88d4fde1461048d578063c87b56dd146104b6578063e985e9c5146104f3578063eacabe1414610530578063f2fde38b1461056d57610140565b80638129fc1c146103705780638a72ec00146103875780638da5cb5b146103a3578063942ae0a7146103ce57806395d89b41146103f9578063a22cb4651461042457610140565b806323b872dd1161010857806323b872dd1461025057806342842e0e146102795780636352211e146102a257806370a08231146102df578063715018a61461031c5780637b0f0a191461033357610140565b806301ffc9a71461014557806306fdde031461018257806307c99f4e146101ad578063081812fc146101ea578063095ea7b314610227575b600080fd5b34801561015157600080fd5b5061016c60048036038101906101679190612cea565b610596565b6040516101799190613249565b60405180910390f35b34801561018e57600080fd5b50610197610678565b6040516101a49190613264565b60405180910390f35b3480156101b957600080fd5b506101d460048036038101906101cf9190612acb565b61070a565b6040516101e19190613227565b60405180910390f35b3480156101f657600080fd5b50610211600480360381019061020c9190612d8d565b61085f565b60405161021e91906131c0565b60405180910390f35b34801561023357600080fd5b5061024e60048036038101906102499190612caa565b6108e4565b005b34801561025c57600080fd5b5061027760048036038101906102729190612b38565b6109fc565b005b34801561028557600080fd5b506102a0600480360381019061029b9190612b38565b610a5c565b005b3480156102ae57600080fd5b506102c960048036038101906102c49190612d8d565b610a7c565b6040516102d691906131c0565b60405180910390f35b3480156102eb57600080fd5b5061030660048036038101906103019190612acb565b610aba565b6040516103139190613512565b60405180910390f35b34801561032857600080fd5b50610331610b04565b005b34801561033f57600080fd5b5061035a60048036038101906103559190612d8d565b610b8c565b60405161036791906131c0565b60405180910390f35b34801561037c57600080fd5b50610385610bc0565b005b6103a1600480360381019061039c9190612d44565b610d37565b005b3480156103af57600080fd5b506103b8610dd5565b6040516103c591906131c0565b60405180910390f35b3480156103da57600080fd5b506103e3610dff565b6040516103f09190613264565b60405180910390f35b34801561040557600080fd5b5061040e610e1f565b60405161041b9190613264565b60405180910390f35b34801561043057600080fd5b5061044b60048036038101906104469190612c0e565b610eb1565b005b34801561045957600080fd5b50610474600480360381019061046f9190612d8d565b610ec7565b6040516104849493929190613286565b60405180910390f35b34801561049957600080fd5b506104b460048036038101906104af9190612b8b565b610f8f565b005b3480156104c257600080fd5b506104dd60048036038101906104d89190612d8d565b610ff1565b6040516104ea9190613264565b60405180910390f35b3480156104ff57600080fd5b5061051a60048036038101906105159190612af8565b611143565b6040516105279190613249565b60405180910390f35b34801561053c57600080fd5b5061055760048036038101906105529190612c4e565b6111d7565b6040516105649190613512565b60405180910390f35b34801561057957600080fd5b50610594600480360381019061058f9190612acb565b61120f565b005b60007f80ac58cd000000000000000000000000000000000000000000000000000000007bffffffffffffffffffffffffffffffffffffffffffffffffffffffff1916827bffffffffffffffffffffffffffffffffffffffffffffffffffffffff1916148061066157507f5b5e139f000000000000000000000000000000000000000000000000000000007bffffffffffffffffffffffffffffffffffffffffffffffffffffffff1916827bffffffffffffffffffffffffffffffffffffffffffffffffffffffff1916145b80610671575061067082611307565b5b9050919050565b6060609780546106879061396c565b80601f01602080910402602001604051908101604052809291908181526020018280546106b39061396c565b80156107005780601f106106d557610100808354040283529160200191610700565b820191906000526020600020905b8154815290600101906020018083116106e357829003601f168201915b5050505050905090565b6060600061010160008473ffffffffffffffffffffffffffffffffffffffff1673ffffffffffffffffffffffffffffffffffffffff1681526020019081526020016000205467ffffffffffffffff81111561076857610767613b05565b5b6040519080825280602002602001820160405280156107965781602001602082028036833780820191505090505b5090506000805b60ff80549050811015610854578473ffffffffffffffffffffffffffffffffffffffff16610100600083815260200190815260200160002060009054906101000a900473ffffffffffffffffffffffffffffffffffffffff1673ffffffffffffffffffffffffffffffffffffffff161415610841578083838151811061082657610825613ad6565b5b602002602001018181525050818061083d906139cf565b9250505b808061084c906139cf565b91505061079d565b508192505050919050565b600061086a82611371565b6108a9576040517f08c379a00000000000000000000000000000000000000000000000000000000081526004016108a090613452565b60405180910390fd5b609b600083815260200190815260200160002060009054906101000a900473ffffffffffffffffffffffffffffffffffffffff169050919050565b60006108ef826113dd565b90508073ffffffffffffffffffffffffffffffffffffffff168373ffffffffffffffffffffffffffffffffffffffff161415610960576040517f08c379a0000000000000000000000000000000000000000000000000000000008152600401610957906134d2565b60405180910390fd5b8073ffffffffffffffffffffffffffffffffffffffff1661097f61148f565b73ffffffffffffffffffffffffffffffffffffffff1614806109ae57506109ad816109a861148f565b611143565b5b6109ed576040517f08c379a00000000000000000000000000000000000000000000000000000000081526004016109e490613392565b60405180910390fd5b6109f78383611497565b505050565b610a0d610a0761148f565b82611550565b610a4c576040517f08c379a0000000000000000000000000000000000000000000000000000000008152600401610a43906134f2565b60405180910390fd5b610a5783838361162e565b505050565b610a7783838360405180602001604052806000815250610f8f565b505050565b6000610100600083815260200190815260200160002060009054906101000a900473ffffffffffffffffffffffffffffffffffffffff169050919050565b600061010160008373ffffffffffffffffffffffffffffffffffffffff1673ffffffffffffffffffffffffffffffffffffffff168152602001908152602001600020549050919050565b610b0c61148f565b73ffffffffffffffffffffffffffffffffffffffff16610b2a610dd5565b73ffffffffffffffffffffffffffffffffffffffff1614610b80576040517f08c379a0000000000000000000000000000000000000000000000000000000008152600401610b7790613472565b60405180910390fd5b610b8a600061188a565b565b6101006020528060005260406000206000915054906101000a900473ffffffffffffffffffffffffffffffffffffffff1681565b600060019054906101000a900460ff1680610be6575060008054906101000a900460ff16155b610c25576040517f08c379a0000000000000000000000000000000000000000000000000000000008152600401610c1c906133f2565b60405180910390fd5b60008060019054906101000a900460ff161590508015610c75576001600060016101000a81548160ff02191690831515021790555060016000806101000a81548160ff0219169083151502179055505b600060109050600081600a610c8a9190613764565b9050600062093a809050610d086040518060400160405280600b81526020017f476f6f642046656c6c617a0000000000000000000000000000000000000000008152506040518060400160405280600381526020017f47464e0000000000000000000000000000000000000000000000000000000000815250611950565b610d10611a45565b5050508015610d345760008060016101000a81548160ff0219169083151502179055505b50565b600561010160003373ffffffffffffffffffffffffffffffffffffffff1673ffffffffffffffffffffffffffffffffffffffff1681526020019081526020016000205410610d8457600080fd5b6000610d8f82611b2e565b9050606481610d9e9190613a18565b81610da99190613882565b9050600060649050610dd083838360fd5442610dc5919061368a565b63ffffffff16611b73565b505050565b6000603360009054906101000a900473ffffffffffffffffffffffffffffffffffffffff16905090565b60606040518060600160405280603181526020016140b960319139905090565b606060988054610e2e9061396c565b80601f0160208091040260200160405190810160405280929190818152602001828054610e5a9061396c565b8015610ea75780601f10610e7c57610100808354040283529160200191610ea7565b820191906000526020600020905b815481529060010190602001808311610e8a57829003601f168201915b5050505050905090565b610ec3610ebc61148f565b8383611d3e565b5050565b60ff8181548110610ed757600080fd5b9060005260206000209060040201600091509050806000018054610efa9061396c565b80601f0160208091040260200160405190810160405280929190818152602001828054610f269061396c565b8015610f735780601f10610f4857610100808354040283529160200191610f73565b820191906000526020600020905b815481529060010190602001808311610f5657829003601f168201915b5050505050908060010154908060020154908060030154905084565b610fa0610f9a61148f565b83611550565b610fdf576040517f08c379a0000000000000000000000000000000000000000000000000000000008152600401610fd6906134f2565b60405180910390fd5b610feb84848484611eab565b50505050565b6060610ffc82611371565b61103b576040517f08c379a000000000000000000000000000000000000000000000000000000000815260040161103290613432565b60405180910390fd5b600060c96000848152602001908152602001600020805461105b9061396c565b80601f01602080910402602001604051908101604052809291908181526020018280546110879061396c565b80156110d45780601f106110a9576101008083540402835291602001916110d4565b820191906000526020600020905b8154815290600101906020018083116110b757829003601f168201915b5050505050905060006110e5611f07565b90506000815114156110fb57819250505061113e565b60008251111561113057808260405160200161111892919061319c565b6040516020818303038152906040529250505061113e565b61113984611f1e565b925050505b919050565b6000609c60008473ffffffffffffffffffffffffffffffffffffffff1673ffffffffffffffffffffffffffffffffffffffff16815260200190815260200160002060008373ffffffffffffffffffffffffffffffffffffffff1673ffffffffffffffffffffffffffffffffffffffff16815260200190815260200160002060009054906101000a900460ff16905092915050565b60006111e360fe611fc5565b60006111ef60fe611fdb565b90506111fb8482611fe9565b61120581846121b7565b8091505092915050565b61121761148f565b73ffffffffffffffffffffffffffffffffffffffff16611235610dd5565b73ffffffffffffffffffffffffffffffffffffffff161461128b576040517f08c379a000000000000000000000000000000000000000000000000000000000815260040161128290613472565b60405180910390fd5b600073ffffffffffffffffffffffffffffffffffffffff168173ffffffffffffffffffffffffffffffffffffffff1614156112fb576040517f08c379a00000000000000000000000000000000000000000000000000000000081526004016112f2906132f2565b60405180910390fd5b6113048161188a565b50565b60007f01ffc9a7000000000000000000000000000000000000000000000000000000007bffffffffffffffffffffffffffffffffffffffffffffffffffffffff1916827bffffffffffffffffffffffffffffffffffffffffffffffffffffffff1916149050919050565b60008073ffffffffffffffffffffffffffffffffffffffff166099600084815260200190815260200160002060009054906101000a900473ffffffffffffffffffffffffffffffffffffffff1673ffffffffffffffffffffffffffffffffffffffff1614159050919050565b6000806099600084815260200190815260200160002060009054906101000a900473ffffffffffffffffffffffffffffffffffffffff169050600073ffffffffffffffffffffffffffffffffffffffff168173ffffffffffffffffffffffffffffffffffffffff161415611486576040517f08c379a000000000000000000000000000000000000000000000000000000000815260040161147d906133b2565b60405180910390fd5b80915050919050565b600033905090565b81609b600083815260200190815260200160002060006101000a81548173ffffffffffffffffffffffffffffffffffffffff021916908373ffffffffffffffffffffffffffffffffffffffff160217905550808273ffffffffffffffffffffffffffffffffffffffff1661150a836113dd565b73ffffffffffffffffffffffffffffffffffffffff167f8c5be1e5ebec7d5bd14f71427d1e84f3dd0314c0f7b2291e5b200ac8c7c3b92560405160405180910390a45050565b600061155b82611371565b61159a576040517f08c379a000000000000000000000000000000000000000000000000000000000815260040161159190613372565b60405180910390fd5b60006115a5836113dd565b90508073ffffffffffffffffffffffffffffffffffffffff168473ffffffffffffffffffffffffffffffffffffffff16148061161457508373ffffffffffffffffffffffffffffffffffffffff166115fc8461085f565b73ffffffffffffffffffffffffffffffffffffffff16145b8061162557506116248185611143565b5b91505092915050565b8273ffffffffffffffffffffffffffffffffffffffff1661164e826113dd565b73ffffffffffffffffffffffffffffffffffffffff16146116a4576040517f08c379a000000000000000000000000000000000000000000000000000000000815260040161169b90613492565b60405180910390fd5b600073ffffffffffffffffffffffffffffffffffffffff168273ffffffffffffffffffffffffffffffffffffffff161415611714576040517f08c379a000000000000000000000000000000000000000000000000000000000815260040161170b90613332565b60405180910390fd5b61171f83838361222b565b61172a600082611497565b6001609a60008573ffffffffffffffffffffffffffffffffffffffff1673ffffffffffffffffffffffffffffffffffffffff168152602001908152602001600020600082825461177a9190613882565b925050819055506001609a60008473ffffffffffffffffffffffffffffffffffffffff1673ffffffffffffffffffffffffffffffffffffffff16815260200190815260200160002060008282546117d1919061368a565b92505081905550816099600083815260200190815260200160002060006101000a81548173ffffffffffffffffffffffffffffffffffffffff021916908373ffffffffffffffffffffffffffffffffffffffff160217905550808273ffffffffffffffffffffffffffffffffffffffff168473ffffffffffffffffffffffffffffffffffffffff167fddf252ad1be2c89b69c2b068fc378daa952ba7f163c4a11628f55a4df523b3ef60405160405180910390a4505050565b6000603360009054906101000a900473ffffffffffffffffffffffffffffffffffffffff16905081603360006101000a81548173ffffffffffffffffffffffffffffffffffffffff021916908373ffffffffffffffffffffffffffffffffffffffff1602179055508173ffffffffffffffffffffffffffffffffffffffff168173ffffffffffffffffffffffffffffffffffffffff167f8be0079c531659141344cd1fd0a4f28419497f9722a3daafe3b4186f6b6457e060405160405180910390a35050565b600060019054906101000a900460ff1680611976575060008054906101000a900460ff16155b6119b5576040517f08c379a00000000000000000000000000000000000000000000000000000000081526004016119ac906133f2565b60405180910390fd5b60008060019054906101000a900460ff161590508015611a05576001600060016101000a81548160ff02191690831515021790555060016000806101000a81548160ff0219169083151502179055505b611a0d612230565b611a15612309565b611a1f83836123e2565b8015611a405760008060016101000a81548160ff0219169083151502179055505b505050565b600060019054906101000a900460ff1680611a6b575060008054906101000a900460ff16155b611aaa576040517f08c379a0000000000000000000000000000000000000000000000000000000008152600401611aa1906133f2565b60405180910390fd5b60008060019054906101000a900460ff161590508015611afa576001600060016101000a81548160ff02191690831515021790555060016000806101000a81548160ff0219169083151502179055505b611b02612230565b611b0a6124eb565b8015611b2b5760008060016101000a81548160ff0219169083151502179055505b50565b60008082604051602001611b429190613185565b6040516020818303038152906040528051906020012060001c905060fc5481611b6b9190613a18565b915050919050565b60ff60405180608001604052808681526020018581526020016001815260200160fd5442611ba1919061368a565b63ffffffff1681525090806001815401808255809150506001900390600052602060002090600402016000909190919091506000820151816000019080519060200190611bef9291906128df565b5060208201518160010155604082015181600201556060820151816003015550506000600160ff80549050611c249190613882565b905033610100600083815260200190815260200160002060006101000a81548173ffffffffffffffffffffffffffffffffffffffff021916908373ffffffffffffffffffffffffffffffffffffffff16021790555061010160003373ffffffffffffffffffffffffffffffffffffffff1673ffffffffffffffffffffffffffffffffffffffff1681526020019081526020016000206000815480929190611cca906139cf565b91905055507f462c151c187c44753e3753efa2df0b8d9ec2741c4a0bdffcecfa823054db56188186868686604051611d0695949392919061352d565b60405180910390a160006040518060800160405280605081526020016140ea605091399050611d3533826111d7565b50505050505050565b8173ffffffffffffffffffffffffffffffffffffffff168373ffffffffffffffffffffffffffffffffffffffff161415611dad576040517f08c379a0000000000000000000000000000000000000000000000000000000008152600401611da490613352565b60405180910390fd5b80609c60008573ffffffffffffffffffffffffffffffffffffffff1673ffffffffffffffffffffffffffffffffffffffff16815260200190815260200160002060008473ffffffffffffffffffffffffffffffffffffffff1673ffffffffffffffffffffffffffffffffffffffff16815260200190815260200160002060006101000a81548160ff0219169083151502179055508173ffffffffffffffffffffffffffffffffffffffff168373ffffffffffffffffffffffffffffffffffffffff167f17307eab39ab6107e8899845ad3d59bd9653f200f220920489ca2b5937696c3183604051611e9e9190613249565b60405180910390a3505050565b611eb684848461162e565b611ec2848484846125d4565b611f01576040517f08c379a0000000000000000000000000000000000000000000000000000000008152600401611ef8906132d2565b60405180910390fd5b50505050565b606060405180602001604052806000815250905090565b6060611f2982611371565b611f68576040517f08c379a0000000000000000000000000000000000000000000000000000000008152600401611f5f906134b2565b60405180910390fd5b6000611f72611f07565b90506000815111611f925760405180602001604052806000815250611fbd565b80611f9c8461276b565b604051602001611fad92919061319c565b6040516020818303038152906040525b915050919050565b6001816000016000828254019250508190555050565b600081600001549050919050565b600073ffffffffffffffffffffffffffffffffffffffff168273ffffffffffffffffffffffffffffffffffffffff161415612059576040517f08c379a000000000000000000000000000000000000000000000000000000000815260040161205090613412565b60405180910390fd5b61206281611371565b156120a2576040517f08c379a000000000000000000000000000000000000000000000000000000000815260040161209990613312565b60405180910390fd5b6120ae6000838361222b565b6001609a60008473ffffffffffffffffffffffffffffffffffffffff1673ffffffffffffffffffffffffffffffffffffffff16815260200190815260200160002060008282546120fe919061368a565b92505081905550816099600083815260200190815260200160002060006101000a81548173ffffffffffffffffffffffffffffffffffffffff021916908373ffffffffffffffffffffffffffffffffffffffff160217905550808273ffffffffffffffffffffffffffffffffffffffff16600073ffffffffffffffffffffffffffffffffffffffff167fddf252ad1be2c89b69c2b068fc378daa952ba7f163c4a11628f55a4df523b3ef60405160405180910390a45050565b6121c082611371565b6121ff576040517f08c379a00000000000000000000000000000000000000000000000000000000081526004016121f6906133d2565b60405180910390fd5b8060c9600084815260200190815260200160002090805190602001906122269291906128df565b505050565b505050565b600060019054906101000a900460ff1680612256575060008054906101000a900460ff16155b612295576040517f08c379a000000000000000000000000000000000000000000000000000000000815260040161228c906133f2565b60405180910390fd5b60008060019054906101000a900460ff1615905080156122e5576001600060016101000a81548160ff02191690831515021790555060016000806101000a81548160ff0219169083151502179055505b80156123065760008060016101000a81548160ff0219169083151502179055505b50565b600060019054906101000a900460ff168061232f575060008054906101000a900460ff16155b61236e576040517f08c379a0000000000000000000000000000000000000000000000000000000008152600401612365906133f2565b60405180910390fd5b60008060019054906101000a900460ff1615905080156123be576001600060016101000a81548160ff02191690831515021790555060016000806101000a81548160ff0219169083151502179055505b80156123df5760008060016101000a81548160ff0219169083151502179055505b50565b600060019054906101000a900460ff1680612408575060008054906101000a900460ff16155b612447576040517f08c379a000000000000000000000000000000000000000000000000000000000815260040161243e906133f2565b60405180910390fd5b60008060019054906101000a900460ff161590508015612497576001600060016101000a81548160ff02191690831515021790555060016000806101000a81548160ff0219169083151502179055505b82609790805190602001906124ad9291906128df565b5081609890805190602001906124c49291906128df565b5080156124e65760008060016101000a81548160ff0219169083151502179055505b505050565b600060019054906101000a900460ff1680612511575060008054906101000a900460ff16155b612550576040517f08c379a0000000000000000000000000000000000000000000000000000000008152600401612547906133f2565b60405180910390fd5b60008060019054906101000a900460ff1615905080156125a0576001600060016101000a81548160ff02191690831515021790555060016000806101000a81548160ff0219169083151502179055505b6125b06125ab61148f565b61188a565b80156125d15760008060016101000a81548160ff0219169083151502179055505b50565b60006125f58473ffffffffffffffffffffffffffffffffffffffff166128cc565b1561275e578373ffffffffffffffffffffffffffffffffffffffff1663150b7a0261261e61148f565b8786866040518563ffffffff1660e01b815260040161264094939291906131db565b602060405180830381600087803b15801561265a57600080fd5b505af192505050801561268b57506040513d601f19601f820116820180604052508101906126889190612d17565b60015b61270e573d80600081146126bb576040519150601f19603f3d011682016040523d82523d6000602084013e6126c0565b606091505b50600081511415612706576040517f08c379a00000000000000000000000000000000000000000000000000000000081526004016126fd906132d2565b60405180910390fd5b805181602001fd5b63150b7a0260e01b7bffffffffffffffffffffffffffffffffffffffffffffffffffffffff1916817bffffffffffffffffffffffffffffffffffffffffffffffffffffffff191614915050612763565b600190505b949350505050565b606060008214156127b3576040518060400160405280600181526020017f300000000000000000000000000000000000000000000000000000000000000081525090506128c7565b600082905060005b600082146127e55780806127ce906139cf565b915050600a826127de91906136e0565b91506127bb565b60008167ffffffffffffffff81111561280157612800613b05565b5b6040519080825280601f01601f1916602001820160405280156128335781602001600182028036833780820191505090505b5090505b600085146128c05760018261284c9190613882565b9150600a8561285b9190613a18565b6030612867919061368a565b60f81b81838151811061287d5761287c613ad6565b5b60200101907effffffffffffffffffffffffffffffffffffffffffffffffffffffffffffff1916908160001a905350600a856128b991906136e0565b9450612837565b8093505050505b919050565b600080823b905060008111915050919050565b8280546128eb9061396c565b90600052602060002090601f01602090048101928261290d5760008555612954565b82601f1061292657805160ff1916838001178555612954565b82800160010185558215612954579182015b82811115612953578251825591602001919060010190612938565b5b5090506129619190612965565b5090565b5b8082111561297e576000816000905550600101612966565b5090565b6000612995612990846135ac565b613587565b9050828152602081018484840111156129b1576129b0613b39565b5b6129bc84828561392a565b509392505050565b60006129d76129d2846135dd565b613587565b9050828152602081018484840111156129f3576129f2613b39565b5b6129fe84828561392a565b509392505050565b600081359050612a158161405c565b92915050565b600081359050612a2a81614073565b92915050565b600081359050612a3f8161408a565b92915050565b600081519050612a548161408a565b92915050565b600082601f830112612a6f57612a6e613b34565b5b8135612a7f848260208601612982565b91505092915050565b600082601f830112612a9d57612a9c613b34565b5b8135612aad8482602086016129c4565b91505092915050565b600081359050612ac5816140a1565b92915050565b600060208284031215612ae157612ae0613b43565b5b6000612aef84828501612a06565b91505092915050565b60008060408385031215612b0f57612b0e613b43565b5b6000612b1d85828601612a06565b9250506020612b2e85828601612a06565b9150509250929050565b600080600060608486031215612b5157612b50613b43565b5b6000612b5f86828701612a06565b9350506020612b7086828701612a06565b9250506040612b8186828701612ab6565b9150509250925092565b60008060008060808587031215612ba557612ba4613b43565b5b6000612bb387828801612a06565b9450506020612bc487828801612a06565b9350506040612bd587828801612ab6565b925050606085013567ffffffffffffffff811115612bf657612bf5613b3e565b5b612c0287828801612a5a565b91505092959194509250565b60008060408385031215612c2557612c24613b43565b5b6000612c3385828601612a06565b9250506020612c4485828601612a1b565b9150509250929050565b60008060408385031215612c6557612c64613b43565b5b6000612c7385828601612a06565b925050602083013567ffffffffffffffff811115612c9457612c93613b3e565b5b612ca085828601612a88565b9150509250929050565b60008060408385031215612cc157612cc0613b43565b5b6000612ccf85828601612a06565b9250506020612ce085828601612ab6565b9150509250929050565b600060208284031215612d0057612cff613b43565b5b6000612d0e84828501612a30565b91505092915050565b600060208284031215612d2d57612d2c613b43565b5b6000612d3b84828501612a45565b91505092915050565b600060208284031215612d5a57612d59613b43565b5b600082013567ffffffffffffffff811115612d7857612d77613b3e565b5b612d8484828501612a88565b91505092915050565b600060208284031215612da357612da2613b43565b5b6000612db184828501612ab6565b91505092915050565b6000612dc68383613167565b60208301905092915050565b612ddb816138b6565b82525050565b6000612dec8261361e565b612df6818561364c565b9350612e018361360e565b8060005b83811015612e32578151612e198882612dba565b9750612e248361363f565b925050600181019050612e05565b5085935050505092915050565b612e48816138c8565b82525050565b6000612e5982613629565b612e63818561365d565b9350612e73818560208601613939565b612e7c81613b48565b840191505092915050565b6000612e9282613634565b612e9c818561366e565b9350612eac818560208601613939565b612eb581613b48565b840191505092915050565b6000612ecb82613634565b612ed5818561367f565b9350612ee5818560208601613939565b80840191505092915050565b6000612efe60328361366e565b9150612f0982613b66565b604082019050919050565b6000612f2160268361366e565b9150612f2c82613bb5565b604082019050919050565b6000612f44601c8361366e565b9150612f4f82613c04565b602082019050919050565b6000612f6760248361366e565b9150612f7282613c2d565b604082019050919050565b6000612f8a60198361366e565b9150612f9582613c7c565b602082019050919050565b6000612fad602c8361366e565b9150612fb882613ca5565b604082019050919050565b6000612fd060388361366e565b9150612fdb82613cf4565b604082019050919050565b6000612ff360298361366e565b9150612ffe82613d43565b604082019050919050565b6000613016602e8361366e565b915061302182613d92565b604082019050919050565b6000613039602e8361366e565b915061304482613de1565b604082019050919050565b600061305c60208361366e565b915061306782613e30565b602082019050919050565b600061307f60318361366e565b915061308a82613e59565b604082019050919050565b60006130a2602c8361366e565b91506130ad82613ea8565b604082019050919050565b60006130c560208361366e565b91506130d082613ef7565b602082019050919050565b60006130e860298361366e565b91506130f382613f20565b604082019050919050565b600061310b602f8361366e565b915061311682613f6f565b604082019050919050565b600061312e60218361366e565b915061313982613fbe565b604082019050919050565b600061315160318361366e565b915061315c8261400d565b604082019050919050565b61317081613920565b82525050565b61317f81613920565b82525050565b60006131918284612ec0565b915081905092915050565b60006131a88285612ec0565b91506131b48284612ec0565b91508190509392505050565b60006020820190506131d56000830184612dd2565b92915050565b60006080820190506131f06000830187612dd2565b6131fd6020830186612dd2565b61320a6040830185613176565b818103606083015261321c8184612e4e565b905095945050505050565b600060208201905081810360008301526132418184612de1565b905092915050565b600060208201905061325e6000830184612e3f565b92915050565b6000602082019050818103600083015261327e8184612e87565b905092915050565b600060808201905081810360008301526132a08187612e87565b90506132af6020830186613176565b6132bc6040830185613176565b6132c96060830184613176565b95945050505050565b600060208201905081810360008301526132eb81612ef1565b9050919050565b6000602082019050818103600083015261330b81612f14565b9050919050565b6000602082019050818103600083015261332b81612f37565b9050919050565b6000602082019050818103600083015261334b81612f5a565b9050919050565b6000602082019050818103600083015261336b81612f7d565b9050919050565b6000602082019050818103600083015261338b81612fa0565b9050919050565b600060208201905081810360008301526133ab81612fc3565b9050919050565b600060208201905081810360008301526133cb81612fe6565b9050919050565b600060208201905081810360008301526133eb81613009565b9050919050565b6000602082019050818103600083015261340b8161302c565b9050919050565b6000602082019050818103600083015261342b8161304f565b9050919050565b6000602082019050818103600083015261344b81613072565b9050919050565b6000602082019050818103600083015261346b81613095565b9050919050565b6000602082019050818103600083015261348b816130b8565b9050919050565b600060208201905081810360008301526134ab816130db565b9050919050565b600060208201905081810360008301526134cb816130fe565b9050919050565b600060208201905081810360008301526134eb81613121565b9050919050565b6000602082019050818103600083015261350b81613144565b9050919050565b60006020820190506135276000830184613176565b92915050565b600060a0820190506135426000830188613176565b81810360208301526135548187612e87565b90506135636040830186613176565b6135706060830185613176565b61357d6080830184613176565b9695505050505050565b60006135916135a2565b905061359d828261399e565b919050565b6000604051905090565b600067ffffffffffffffff8211156135c7576135c6613b05565b5b6135d082613b48565b9050602081019050919050565b600067ffffffffffffffff8211156135f8576135f7613b05565b5b61360182613b48565b9050602081019050919050565b6000819050602082019050919050565b600081519050919050565b600081519050919050565b600081519050919050565b6000602082019050919050565b600082825260208201905092915050565b600082825260208201905092915050565b600082825260208201905092915050565b600081905092915050565b600061369582613920565b91506136a083613920565b9250827fffffffffffffffffffffffffffffffffffffffffffffffffffffffffffffffff038211156136d5576136d4613a49565b5b828201905092915050565b60006136eb82613920565b91506136f683613920565b92508261370657613705613a78565b5b828204905092915050565b6000808291508390505b600185111561375b5780860481111561373757613736613a49565b5b60018516156137465780820291505b808102905061375485613b59565b945061371b565b94509492505050565b600061376f82613920565b915061377a83613920565b92506137a77fffffffffffffffffffffffffffffffffffffffffffffffffffffffffffffffff84846137af565b905092915050565b6000826137bf576001905061387b565b816137cd576000905061387b565b81600181146137e357600281146137ed5761381c565b600191505061387b565b60ff8411156137ff576137fe613a49565b5b8360020a91508482111561381657613815613a49565b5b5061387b565b5060208310610133831016604e8410600b84101617156138515782820a90508381111561384c5761384b613a49565b5b61387b565b61385e8484846001613711565b9250905081840481111561387557613874613a49565b5b81810290505b9392505050565b600061388d82613920565b915061389883613920565b9250828210156138ab576138aa613a49565b5b828203905092915050565b60006138c182613900565b9050919050565b60008115159050919050565b60007fffffffff0000000000000000000000000000000000000000000000000000000082169050919050565b600073ffffffffffffffffffffffffffffffffffffffff82169050919050565b6000819050919050565b82818337600083830152505050565b60005b8381101561395757808201518184015260208101905061393c565b83811115613966576000848401525b50505050565b6000600282049050600182168061398457607f821691505b6020821081141561399857613997613aa7565b5b50919050565b6139a782613b48565b810181811067ffffffffffffffff821117156139c6576139c5613b05565b5b80604052505050565b60006139da82613920565b91507fffffffffffffffffffffffffffffffffffffffffffffffffffffffffffffffff821415613a0d57613a0c613a49565b5b600182019050919050565b6000613a2382613920565b9150613a2e83613920565b925082613a3e57613a3d613a78565b5b828206905092915050565b7f4e487b7100000000000000000000000000000000000000000000000000000000600052601160045260246000fd5b7f4e487b7100000000000000000000000000000000000000000000000000000000600052601260045260246000fd5b7f4e487b7100000000000000000000000000000000000000000000000000000000600052602260045260246000fd5b7f4e487b7100000000000000000000000000000000000000000000000000000000600052603260045260246000fd5b7f4e487b7100000000000000000000000000000000000000000000000000000000600052604160045260246000fd5b600080fd5b600080fd5b600080fd5b600080fd5b6000601f19601f8301169050919050565b60008160011c9050919050565b7f4552433732313a207472616e7366657220746f206e6f6e20455243373231526560008201527f63656976657220696d706c656d656e7465720000000000000000000000000000602082015250565b7f4f776e61626c653a206e6577206f776e657220697320746865207a65726f206160008201527f6464726573730000000000000000000000000000000000000000000000000000602082015250565b7f4552433732313a20746f6b656e20616c7265616479206d696e74656400000000600082015250565b7f4552433732313a207472616e7366657220746f20746865207a65726f2061646460008201527f7265737300000000000000000000000000000000000000000000000000000000602082015250565b7f4552433732313a20617070726f766520746f2063616c6c657200000000000000600082015250565b7f4552433732313a206f70657261746f7220717565727920666f72206e6f6e657860008201527f697374656e7420746f6b656e0000000000000000000000000000000000000000602082015250565b7f4552433732313a20617070726f76652063616c6c6572206973206e6f74206f7760008201527f6e6572206e6f7220617070726f76656420666f7220616c6c0000000000000000602082015250565b7f4552433732313a206f776e657220717565727920666f72206e6f6e657869737460008201527f656e7420746f6b656e0000000000000000000000000000000000000000000000602082015250565b7f45524337323155524953746f726167653a2055524920736574206f66206e6f6e60008201527f6578697374656e7420746f6b656e000000000000000000000000000000000000602082015250565b7f496e697469616c697a61626c653a20636f6e747261637420697320616c72656160008201527f647920696e697469616c697a6564000000000000000000000000000000000000602082015250565b7f4552433732313a206d696e7420746f20746865207a65726f2061646472657373600082015250565b7f45524337323155524953746f726167653a2055524920717565727920666f722060008201527f6e6f6e6578697374656e7420746f6b656e000000000000000000000000000000602082015250565b7f4552433732313a20617070726f76656420717565727920666f72206e6f6e657860008201527f697374656e7420746f6b656e0000000000000000000000000000000000000000602082015250565b7f4f776e61626c653a2063616c6c6572206973206e6f7420746865206f776e6572600082015250565b7f4552433732313a207472616e73666572206f6620746f6b656e2074686174206960008201527f73206e6f74206f776e0000000000000000000000000000000000000000000000602082015250565b7f4552433732314d657461646174613a2055524920717565727920666f72206e6f60008201527f6e6578697374656e7420746f6b656e0000000000000000000000000000000000602082015250565b7f4552433732313a20617070726f76616c20746f2063757272656e74206f776e6560008201527f7200000000000000000000000000000000000000000000000000000000000000602082015250565b7f4552433732313a207472616e736665722063616c6c6572206973206e6f74206f60008201527f776e6572206e6f7220617070726f766564000000000000000000000000000000602082015250565b614065816138b6565b811461407057600080fd5b50565b61407c816138c8565b811461408757600080fd5b50565b614093816138d4565b811461409e57600080fd5b50565b6140aa81613920565b81146140b557600080fd5b5056fe54686520636f6e7472616374207761732075706772616465642121207761732069743f207965732069742077617321212168747470733a2f2f676174657761792e70696e6174612e636c6f75642f697066732f516d513544713442754a7662763848684177363950536d4d687439764d3778597337457a7a53576b43456b633254a26469706673582212207a71941f609e58668dc54e39480fb6b7f0a85fd61597701739382fed8838afee64736f6c63430008070033",
  "linkReferences": {},
  "deployedLinkReferences": {}
}